{
  "_format": "hh-sol-artifact-1",
  "contractName": "Web3ConNFT",
  "sourceName": "contracts/NFT.sol",
  "abi": [
    {
      "inputs": [
        {
          "internalType": "address",
          "name": "owner",
          "type": "address"
        },
        {
          "internalType": "string",
          "name": "_name",
          "type": "string"
        },
        {
          "internalType": "string",
          "name": "_symbol",
          "type": "string"
        },
        {
          "internalType": "contract ISuperfluid",
          "name": "host",
          "type": "address"
        },
        {
          "internalType": "contract IConstantFlowAgreementV1",
          "name": "cfa",
          "type": "address"
        },
        {
          "internalType": "contract ISuperToken",
          "name": "acceptedToken",
          "type": "address"
        }
      ],
      "stateMutability": "nonpayable",
      "type": "constructor"
    },
    {
      "anonymous": false,
      "inputs": [
        {
          "indexed": true,
          "internalType": "address",
          "name": "owner",
          "type": "address"
        },
        {
          "indexed": true,
          "internalType": "address",
          "name": "approved",
          "type": "address"
        },
        {
          "indexed": true,
          "internalType": "uint256",
          "name": "tokenId",
          "type": "uint256"
        }
      ],
      "name": "Approval",
      "type": "event"
    },
    {
      "anonymous": false,
      "inputs": [
        {
          "indexed": true,
          "internalType": "address",
          "name": "owner",
          "type": "address"
        },
        {
          "indexed": true,
          "internalType": "address",
          "name": "operator",
          "type": "address"
        },
        {
          "indexed": false,
          "internalType": "bool",
          "name": "approved",
          "type": "bool"
        }
      ],
      "name": "ApprovalForAll",
      "type": "event"
    },
    {
      "anonymous": false,
      "inputs": [
        {
          "indexed": false,
          "internalType": "address",
          "name": "receiver",
          "type": "address"
        }
      ],
      "name": "ReceiverChanged",
      "type": "event"
    },
    {
      "anonymous": false,
      "inputs": [
        {
          "indexed": true,
          "internalType": "address",
          "name": "from",
          "type": "address"
        },
        {
          "indexed": true,
          "internalType": "address",
          "name": "to",
          "type": "address"
        },
        {
          "indexed": true,
          "internalType": "uint256",
          "name": "tokenId",
          "type": "uint256"
        }
      ],
      "name": "Transfer",
      "type": "event"
    },
    {
      "inputs": [],
      "name": "_host",
      "outputs": [
        {
          "internalType": "contract ISuperfluid",
          "name": "",
          "type": "address"
        }
      ],
      "stateMutability": "view",
      "type": "function"
    },
    {
      "inputs": [],
      "name": "_receiver",
      "outputs": [
        {
          "internalType": "address",
          "name": "",
          "type": "address"
        }
      ],
      "stateMutability": "view",
      "type": "function"
    },
    {
      "inputs": [
        {
          "internalType": "contract ISuperToken",
          "name": "_superToken",
          "type": "address"
        },
        {
          "internalType": "address",
          "name": "_agreementClass",
          "type": "address"
        },
        {
          "internalType": "bytes32",
          "name": "",
          "type": "bytes32"
        },
        {
          "internalType": "bytes",
          "name": "",
          "type": "bytes"
        },
        {
          "internalType": "bytes",
          "name": "",
          "type": "bytes"
        },
        {
          "internalType": "bytes",
          "name": "_ctx",
          "type": "bytes"
        }
      ],
      "name": "afterAgreementCreated",
      "outputs": [
        {
          "internalType": "bytes",
          "name": "newCtx",
          "type": "bytes"
        }
      ],
      "stateMutability": "nonpayable",
      "type": "function"
    },
    {
      "inputs": [
        {
          "internalType": "contract ISuperToken",
          "name": "_superToken",
          "type": "address"
        },
        {
          "internalType": "address",
          "name": "_agreementClass",
          "type": "address"
        },
        {
          "internalType": "bytes32",
          "name": "",
          "type": "bytes32"
        },
        {
          "internalType": "bytes",
          "name": "",
          "type": "bytes"
        },
        {
          "internalType": "bytes",
          "name": "",
          "type": "bytes"
        },
        {
          "internalType": "bytes",
          "name": "_ctx",
          "type": "bytes"
        }
      ],
      "name": "afterAgreementTerminated",
      "outputs": [
        {
          "internalType": "bytes",
          "name": "newCtx",
          "type": "bytes"
        }
      ],
      "stateMutability": "nonpayable",
      "type": "function"
    },
    {
      "inputs": [
        {
          "internalType": "contract ISuperToken",
          "name": "_superToken",
          "type": "address"
        },
        {
          "internalType": "address",
          "name": "_agreementClass",
          "type": "address"
        },
        {
          "internalType": "bytes32",
          "name": "",
          "type": "bytes32"
        },
        {
          "internalType": "bytes",
          "name": "",
          "type": "bytes"
        },
        {
          "internalType": "bytes",
          "name": "",
          "type": "bytes"
        },
        {
          "internalType": "bytes",
          "name": "_ctx",
          "type": "bytes"
        }
      ],
      "name": "afterAgreementUpdated",
      "outputs": [
        {
          "internalType": "bytes",
          "name": "newCtx",
          "type": "bytes"
        }
      ],
      "stateMutability": "nonpayable",
      "type": "function"
    },
    {
      "inputs": [
        {
          "internalType": "address",
          "name": "to",
          "type": "address"
        },
        {
          "internalType": "uint256",
          "name": "tokenId",
          "type": "uint256"
        }
      ],
      "name": "approve",
      "outputs": [],
      "stateMutability": "nonpayable",
      "type": "function"
    },
    {
      "inputs": [
        {
          "internalType": "address",
          "name": "owner",
          "type": "address"
        }
      ],
      "name": "balanceOf",
      "outputs": [
        {
          "internalType": "uint256",
          "name": "",
          "type": "uint256"
        }
      ],
      "stateMutability": "view",
      "type": "function"
    },
    {
      "inputs": [],
      "name": "baseExtension",
      "outputs": [
        {
          "internalType": "string",
          "name": "",
          "type": "string"
        }
      ],
      "stateMutability": "view",
      "type": "function"
    },
    {
      "inputs": [],
      "name": "baseURI",
      "outputs": [
        {
          "internalType": "string",
          "name": "",
          "type": "string"
        }
      ],
      "stateMutability": "view",
      "type": "function"
    },
    {
      "inputs": [
        {
          "internalType": "contract ISuperToken",
          "name": "",
          "type": "address"
        },
        {
          "internalType": "address",
          "name": "",
          "type": "address"
        },
        {
          "internalType": "bytes32",
          "name": "",
          "type": "bytes32"
        },
        {
          "internalType": "bytes",
          "name": "",
          "type": "bytes"
        },
        {
          "internalType": "bytes",
          "name": "",
          "type": "bytes"
        }
      ],
      "name": "beforeAgreementCreated",
      "outputs": [
        {
          "internalType": "bytes",
          "name": "",
          "type": "bytes"
        }
      ],
      "stateMutability": "view",
      "type": "function"
    },
    {
      "inputs": [
        {
          "internalType": "contract ISuperToken",
          "name": "",
          "type": "address"
        },
        {
          "internalType": "address",
          "name": "",
          "type": "address"
        },
        {
          "internalType": "bytes32",
          "name": "",
          "type": "bytes32"
        },
        {
          "internalType": "bytes",
          "name": "",
          "type": "bytes"
        },
        {
          "internalType": "bytes",
          "name": "",
          "type": "bytes"
        }
      ],
      "name": "beforeAgreementTerminated",
      "outputs": [
        {
          "internalType": "bytes",
          "name": "",
          "type": "bytes"
        }
      ],
      "stateMutability": "view",
      "type": "function"
    },
    {
      "inputs": [
        {
          "internalType": "contract ISuperToken",
          "name": "",
          "type": "address"
        },
        {
          "internalType": "address",
          "name": "",
          "type": "address"
        },
        {
          "internalType": "bytes32",
          "name": "",
          "type": "bytes32"
        },
        {
          "internalType": "bytes",
          "name": "",
          "type": "bytes"
        },
        {
          "internalType": "bytes",
          "name": "",
          "type": "bytes"
        }
      ],
      "name": "beforeAgreementUpdated",
      "outputs": [
        {
          "internalType": "bytes",
          "name": "",
          "type": "bytes"
        }
      ],
      "stateMutability": "view",
      "type": "function"
    },
    {
      "inputs": [
        {
          "internalType": "string",
          "name": "_tokenURI",
          "type": "string"
        }
      ],
      "name": "changeURI",
      "outputs": [],
      "stateMutability": "nonpayable",
      "type": "function"
    },
    {
      "inputs": [],
      "name": "currentReceiver",
      "outputs": [
        {
          "internalType": "uint256",
          "name": "startTime",
          "type": "uint256"
        },
        {
          "internalType": "address",
          "name": "receiver",
          "type": "address"
        },
        {
          "internalType": "int96",
          "name": "flowRate",
          "type": "int96"
        }
      ],
      "stateMutability": "view",
      "type": "function"
    },
    {
      "inputs": [
        {
          "internalType": "uint256",
          "name": "_tokenId",
          "type": "uint256"
        }
      ],
      "name": "destroyNFT",
      "outputs": [],
      "stateMutability": "nonpayable",
      "type": "function"
    },
    {
      "inputs": [
        {
          "internalType": "uint256",
          "name": "",
          "type": "uint256"
        }
      ],
      "name": "flowRates",
      "outputs": [
        {
          "internalType": "int96",
          "name": "",
          "type": "int96"
        }
      ],
      "stateMutability": "view",
      "type": "function"
    },
    {
      "inputs": [
        {
          "internalType": "uint256",
          "name": "tokenId",
          "type": "uint256"
        }
      ],
      "name": "getApproved",
      "outputs": [
        {
          "internalType": "address",
          "name": "",
          "type": "address"
        }
      ],
      "stateMutability": "view",
      "type": "function"
    },
    {
      "inputs": [
        {
          "internalType": "address",
          "name": "owner",
          "type": "address"
        },
        {
          "internalType": "address",
          "name": "operator",
          "type": "address"
        }
      ],
      "name": "isApprovedForAll",
      "outputs": [
        {
          "internalType": "bool",
          "name": "",
          "type": "bool"
        }
      ],
      "stateMutability": "view",
      "type": "function"
    },
    {
      "inputs": [],
      "name": "mintNFT",
      "outputs": [],
      "stateMutability": "nonpayable",
      "type": "function"
    },
    {
      "inputs": [],
      "name": "name",
      "outputs": [
        {
          "internalType": "string",
          "name": "",
          "type": "string"
        }
      ],
      "stateMutability": "view",
      "type": "function"
    },
    {
      "inputs": [],
      "name": "nextId",
      "outputs": [
        {
          "internalType": "uint256",
          "name": "",
          "type": "uint256"
        }
      ],
      "stateMutability": "view",
      "type": "function"
    },
    {
      "inputs": [
        {
          "internalType": "uint256",
          "name": "tokenId",
          "type": "uint256"
        }
      ],
      "name": "ownerOf",
      "outputs": [
        {
          "internalType": "address",
          "name": "",
          "type": "address"
        }
      ],
      "stateMutability": "view",
      "type": "function"
    },
    {
      "inputs": [
        {
          "internalType": "address",
          "name": "from",
          "type": "address"
        },
        {
          "internalType": "address",
          "name": "to",
          "type": "address"
        },
        {
          "internalType": "uint256",
          "name": "tokenId",
          "type": "uint256"
        }
      ],
      "name": "safeTransferFrom",
      "outputs": [],
      "stateMutability": "nonpayable",
      "type": "function"
    },
    {
      "inputs": [
        {
          "internalType": "address",
          "name": "from",
          "type": "address"
        },
        {
          "internalType": "address",
          "name": "to",
          "type": "address"
        },
        {
          "internalType": "uint256",
          "name": "tokenId",
          "type": "uint256"
        },
        {
          "internalType": "bytes",
          "name": "_data",
          "type": "bytes"
        }
      ],
      "name": "safeTransferFrom",
      "outputs": [],
      "stateMutability": "nonpayable",
      "type": "function"
    },
    {
      "inputs": [
        {
          "internalType": "address",
          "name": "operator",
          "type": "address"
        },
        {
          "internalType": "bool",
          "name": "approved",
          "type": "bool"
        }
      ],
      "name": "setApprovalForAll",
      "outputs": [],
      "stateMutability": "nonpayable",
      "type": "function"
    },
    {
      "inputs": [
        {
          "internalType": "bytes4",
          "name": "interfaceId",
          "type": "bytes4"
        }
      ],
      "name": "supportsInterface",
      "outputs": [
        {
          "internalType": "bool",
          "name": "",
          "type": "bool"
        }
      ],
      "stateMutability": "view",
      "type": "function"
    },
    {
      "inputs": [],
      "name": "symbol",
      "outputs": [
        {
          "internalType": "string",
          "name": "",
          "type": "string"
        }
      ],
      "stateMutability": "view",
      "type": "function"
    },
    {
      "inputs": [
        {
          "internalType": "uint256",
          "name": "index",
          "type": "uint256"
        }
      ],
      "name": "tokenByIndex",
      "outputs": [
        {
          "internalType": "uint256",
          "name": "",
          "type": "uint256"
        }
      ],
      "stateMutability": "view",
      "type": "function"
    },
    {
      "inputs": [
        {
          "internalType": "address",
          "name": "owner",
          "type": "address"
        },
        {
          "internalType": "uint256",
          "name": "index",
          "type": "uint256"
        }
      ],
      "name": "tokenOfOwnerByIndex",
      "outputs": [
        {
          "internalType": "uint256",
          "name": "",
          "type": "uint256"
        }
      ],
      "stateMutability": "view",
      "type": "function"
    },
    {
      "inputs": [
        {
          "internalType": "uint256",
          "name": "tokenId",
          "type": "uint256"
        }
      ],
      "name": "tokenURI",
      "outputs": [
        {
          "internalType": "string",
          "name": "",
          "type": "string"
        }
      ],
      "stateMutability": "view",
      "type": "function"
    },
    {
      "inputs": [],
      "name": "totalSupply",
      "outputs": [
        {
          "internalType": "uint256",
          "name": "",
          "type": "uint256"
        }
      ],
      "stateMutability": "view",
      "type": "function"
    },
    {
      "inputs": [
        {
          "internalType": "address",
          "name": "from",
          "type": "address"
        },
        {
          "internalType": "address",
          "name": "to",
          "type": "address"
        },
        {
          "internalType": "uint256",
          "name": "tokenId",
          "type": "uint256"
        }
      ],
      "name": "transferFrom",
      "outputs": [],
      "stateMutability": "nonpayable",
      "type": "function"
    },
    {
      "inputs": [],
      "name": "uData",
      "outputs": [
        {
          "internalType": "uint8",
          "name": "appLevel",
          "type": "uint8"
        },
        {
          "internalType": "uint8",
          "name": "callType",
          "type": "uint8"
        },
        {
          "internalType": "uint256",
          "name": "timestamp",
          "type": "uint256"
        },
        {
          "internalType": "address",
          "name": "msgSender",
          "type": "address"
        },
        {
          "internalType": "bytes4",
          "name": "agreementSelector",
          "type": "bytes4"
        },
        {
          "internalType": "bytes",
          "name": "userData",
          "type": "bytes"
        },
        {
          "internalType": "uint256",
          "name": "appAllowanceGranted",
          "type": "uint256"
        },
        {
          "internalType": "uint256",
          "name": "appAllowanceWanted",
          "type": "uint256"
        },
        {
          "internalType": "int256",
          "name": "appAllowanceUsed",
          "type": "int256"
        },
        {
          "internalType": "address",
          "name": "appAddress",
          "type": "address"
        },
        {
          "internalType": "contract ISuperfluidToken",
          "name": "appAllowanceToken",
          "type": "address"
        }
      ],
      "stateMutability": "view",
      "type": "function"
    },
    {
      "inputs": [],
      "name": "userData",
      "outputs": [
        {
          "internalType": "string",
          "name": "",
          "type": "string"
        }
      ],
      "stateMutability": "view",
      "type": "function"
    }
  ],
  "bytecode": "0x60c06040526005608081905264173539b7b760d91b60a09081526200002891600e91906200021a565b503480156200003657600080fd5b5060405162003dcb38038062003dcb83398101604081905262000059916200035d565b84846200006d6301ffc9a760e01b620001bf565b8151620000829060069060208501906200021a565b508051620000989060079060208401906200021a565b50620000ab6380ac58cd60e01b620001bf565b620000bd635b5e139f60e01b620001bf565b620000cf63780e9d6360e01b620001bf565b50506001600160a01b038316620000e257fe5b6001600160a01b038216620000f357fe5b6001600160a01b0381166200010457fe5b600a80546001600160a01b038086166001600160a01b03199283161792839055600b8054868316908416179055600c8054858316908416179055600d805490921633179091556040516315a722b960e31b8152641500000001929091169063ad3915c8906200017890849060040162000451565b600060405180830381600087803b1580156200019357600080fd5b505af1158015620001a8573d6000803e3d6000fd5b505060016010555062000473975050505050505050565b6001600160e01b03198082161415620001f55760405162461bcd60e51b8152600401620001ec906200041a565b60405180910390fd5b6001600160e01b0319166000908152602081905260409020805460ff19166001179055565b828054600181600116156101000203166002900490600052602060002090601f016020900481019282601f106200025d57805160ff19168380011785556200028d565b828001600101855582156200028d579182015b828111156200028d57825182559160200191906001019062000270565b506200029b9291506200029f565b5090565b5b808211156200029b5760008155600101620002a0565b600082601f830112620002c7578081fd5b81516001600160401b0380821115620002de578283fd5b6040516020601f8401601f191682018101838111838210171562000300578586fd5b806040525081945083825286818588010111156200031d57600080fd5b600092505b8383101562000341578583018101518284018201529182019162000322565b83831115620003535760008185840101525b5050505092915050565b60008060008060008060c0878903121562000376578182fd5b865162000383816200045a565b60208801519096506001600160401b0380821115620003a0578384fd5b620003ae8a838b01620002b6565b96506040890151915080821115620003c4578384fd5b50620003d389828a01620002b6565b9450506060870151620003e6816200045a565b6080880151909350620003f9816200045a565b60a08801519092506200040c816200045a565b809150509295509295509295565b6020808252601c908201527f4552433136353a20696e76616c696420696e7465726661636520696400000000604082015260600190565b90815260200190565b6001600160a01b03811681146200047057600080fd5b50565b61394880620004836000396000f3fe608060405234801561001057600080fd5b50600436106102065760003560e01c80636352211e1161011a578063b88d4fde116100ad578063c87b56dd1161007c578063c87b56dd14610414578063d86ed3e514610427578063e5e01c111461043a578063e985e9c51461044d578063ecf08fae1461046057610206565b8063b88d4fde146103de578063bea6998f146103f1578063c40412b5146103f9578063c66828621461040c57610206565b8063852e5a0a116100e9578063852e5a0a146103a8578063884d1f40146103b057806395d89b41146103c3578063a22cb465146103cb57610206565b80636352211e1461035a5780636c0360eb1461036d57806370a082311461037557806379bcb8df1461038857610206565b806323b872dd1161019d57806342842e0e1161016c57806342842e0e146103065780634f6ccce71461031957806353c11f991461032c5780635f9e7d771461033f57806361b8ce8c1461035257610206565b806323b872dd146102b657806328d2bf94146102c95780632f745c59146102e057806330d9c915146102f357610206565b8063095ea7b3116101d9578063095ea7b31461027157806314f710fe1461028657806318160ddd1461028e578063230dbd29146102a357610206565b806301ffc9a71461020b57806302964ff11461023457806306fdde0314610249578063081812fc1461025e575b600080fd5b61021e610219366004612972565b61047f565b60405161022b9190612dff565b60405180910390f35b61023c61049e565b60405161022b9190612dae565b6102516104ad565b60405161022b9190612e39565b61023c61026c366004612cfd565b610543565b61028461027f366004612913565b61058f565b005b610284610627565b610296610694565b60405161022b919061371a565b6102516102b1366004612ada565b6106a5565b6102846102c436600461283c565b6108ea565b6102d1610922565b60405161022b93929190613723565b6102966102ee366004612913565b6109e5565b610251610301366004612a3e565b610a10565b61028461031436600461283c565b610a2a565b610296610327366004612cfd565b610a45565b61025161033a366004612ada565b610a5b565b61025161034d366004612a3e565b610b41565b610296610b5b565b61023c610368366004612cfd565b610b61565b610251610b89565b6102966103833660046127e8565b610bea565b61039b610396366004612cfd565b610c33565b60405161022b9190612fe5565b61023c610c48565b6102516103be366004612a3e565b610c57565b610251610c71565b6102846103d93660046128e6565b610cd2565b6102846103ec36600461287c565b610da0565b610251610ddf565b610284610407366004612cfd565b610e6d565b610251610eb3565b610251610422366004612cfd565b610f0e565b610251610435366004612ada565b610f87565b610284610448366004612bbc565b611252565b61021e61045b366004612804565b611295565b6104686112c3565b60405161022b9b9a99989796959493929190613745565b6001600160e01b03191660009081526020819052604090205460ff1690565b600d546001600160a01b031681565b60068054604080516020601f60026000196101006001881615020190951694909404938401819004810282018101909252828152606093909290918301828280156105395780601f1061050e57610100808354040283529160200191610539565b820191906000526020600020905b81548152906001019060200180831161051c57829003601f168201915b5050505050905090565b600061054e826113ac565b6105735760405162461bcd60e51b815260040161056a9061349f565b60405180910390fd5b506000908152600460205260409020546001600160a01b031690565b600061059a82610b61565b9050806001600160a01b0316836001600160a01b031614156105ce5760405162461bcd60e51b815260040161056a906135b3565b806001600160a01b03166105e06113b9565b6001600160a01b031614806105fc57506105fc8161045b6113b9565b6106185760405162461bcd60e51b815260040161056a9061333f565b61062283836113bd565b505050565b6002601054106106495760405162461bcd60e51b815260040161056a906130c8565b6106553360105461142b565b600d80546001600160a01b031916331790556010805460010190556040805160608101909152603c80825261069291906138ae60208301396114ef565b565b60006106a06002611506565b905090565b606089896106b282611511565b6106ce5760405162461bcd60e51b815260040161056a9061312f565b6106d781611525565b6106f35760405162461bcd60e51b815260040161056a90613035565b600a546001600160a01b0316331461071d5760405162461bcd60e51b815260040161056a906131b9565b6107256125a8565b600a54604051631fb6491d60e11b81526001600160a01b0390911690633f6c923a906107579089908990600401612e0a565b60006040518083038186803b15801561076f57600080fd5b505afa158015610783573d6000803e3d6000fd5b505050506040513d6000823e601f3d908101601f191682016040526107ab9190810190612bef565b80516011805460208085015160ff1990921660ff9485161761ff0019166101009490921693909302178155604083015160125560608301516013805460808601516001600160a01b03199091166001600160a01b039093169290921763ffffffff60a01b1916600160a01b60e09390931c9290920291909117905560a08301518051939450849391926108449260149290910190612603565b5060c0820151600482015560e0820151600582015561010082015160068201556101208201516007820180546001600160a01b03199081166001600160a01b03938416179091556101409093015160089092018054909316911617905560a081015180516108ba916020918101820191016129aa565b80516108ce91601a91602090910190612603565b506108d986866115c0565b9d9c50505050505050505050505050565b6108fb6108f56113b9565b8261197f565b6109175760405162461bcd60e51b815260040161056a90613643565b610622838383611a04565b600d54600090819081906001600160a01b0316156109e057600b54600c54600d54604051631cd43d1160e31b81526001600160a01b039384169363e6a1e888936109789390821692309290911690600401612f23565b60806040518083038186803b15801561099057600080fd5b505afa1580156109a4573d6000803e3d6000fd5b505050506040513d601f19601f820116820180604052508101906109c89190612d15565b5050600d549194506001600160a01b03909116925090505b909192565b6001600160a01b0382166000908152600160205260408120610a079083611b12565b90505b92915050565b606060405162461bcd60e51b815260040161056a906136cb565b61062283838360405180602001604052806000815250610da0565b600080610a53600284611b1e565b509392505050565b600a546060906001600160a01b03163314610a885760405162461bcd60e51b815260040161056a906131b9565b610a918a611511565b1580610aa35750610aa189611525565b155b15610ae75782828080601f016020809104026020016040519081016040528093929190818152602001838380828437600092019190915250929350610b3492505050565b604080516020810191829052600090819052610b0591601a91612603565b50610b276040518060600160405280603c81526020016138ae603c91396114ef565b610b3183836115c0565b90505b9998505050505050505050565b606060405162461bcd60e51b815260040161056a90613166565b60105481565b6000610a0a826040518060600160405280602981526020016138ea6029913960029190611b3c565b60098054604080516020601f60026000196101006001881615020190951694909404938401819004810282018101909252828152606093909290918301828280156105395780601f1061050e57610100808354040283529160200191610539565b60006001600160a01b038216610c125760405162461bcd60e51b815260040161056a9061339c565b6001600160a01b0382166000908152600160205260409020610a0a90611506565b600f60205260009081526040902054600b0b81565b600a546001600160a01b031681565b606060405162461bcd60e51b815260040161056a906135f4565b60078054604080516020601f60026000196101006001881615020190951694909404938401819004810282018101909252828152606093909290918301828280156105395780601f1061050e57610100808354040283529160200191610539565b610cda6113b9565b6001600160a01b0316826001600160a01b03161415610d0b5760405162461bcd60e51b815260040161056a9061323f565b8060056000610d186113b9565b6001600160a01b03908116825260208083019390935260409182016000908120918716808252919093529120805460ff191692151592909217909155610d5c6113b9565b6001600160a01b03167f17307eab39ab6107e8899845ad3d59bd9653f200f220920489ca2b5937696c3183604051610d949190612dff565b60405180910390a35050565b610db1610dab6113b9565b8361197f565b610dcd5760405162461bcd60e51b815260040161056a90613643565b610dd984848484611b49565b50505050565b601a805460408051602060026001851615610100026000190190941693909304601f81018490048402820184019092528181529291830182828015610e655780601f10610e3a57610100808354040283529160200191610e65565b820191906000526020600020905b815481529060010190602001808311610e4857829003601f168201915b505050505081565b610e776001610b61565b6001600160a01b0316336001600160a01b031614610ea75760405162461bcd60e51b815260040161056a906134eb565b610eb081611b7c565b50565b600e805460408051602060026001851615610100026000190190941693909304601f81018490048402820184019092528181529291830182828015610e655780601f10610e3a57610100808354040283529160200191610e65565b6060610f19826113ac565b610f355760405162461bcd60e51b815260040161056a90613564565b6060610f3f610b89565b90506000815111610f5f5760405180602001604052806000815250610f80565b80604051602001610f709190612d92565b6040516020818303038152906040525b9392505050565b60608989610f9482611511565b610fb05760405162461bcd60e51b815260040161056a9061312f565b610fb981611525565b610fd55760405162461bcd60e51b815260040161056a90613035565b600a546001600160a01b03163314610fff5760405162461bcd60e51b815260040161056a906131b9565b6110076125a8565b600a54604051631fb6491d60e11b81526001600160a01b0390911690633f6c923a906110399089908990600401612e0a565b60006040518083038186803b15801561105157600080fd5b505afa158015611065573d6000803e3d6000fd5b505050506040513d6000823e601f3d908101601f1916820160405261108d9190810190612bef565b80516011805460208085015160ff1990921660ff9485161761ff0019166101009490921693909302178155604083015160125560608301516013805460808601516001600160a01b03199091166001600160a01b039093169290921763ffffffff60a01b1916600160a01b60e09390931c9290920291909117905560a08301518051939450849391926111269260149290910190612603565b5060c0820151600482015560e0820151600582015561010082015160068201556101208201516007820180546001600160a01b03199081166001600160a01b03938416179091556101409093015160089092018054909316911617905560a0810151805161119c916020918101820191016129aa565b80516111b091601a91602090910190612603565b50601a8054604080516020601f60026000196101006001881615020190951694909404938401819004810282018101909252828152611248939092909183018282801561123e5780601f106112135761010080835404028352916020019161123e565b820191906000526020600020905b81548152906001019060200180831161122157829003601f168201915b50505050506114ef565b6108d986866115c0565b61125c6001610b61565b6001600160a01b0316336001600160a01b03161461128c5760405162461bcd60e51b815260040161056a906134eb565b610eb0816114ef565b6001600160a01b03918216600090815260056020908152604080832093909416825291909152205460ff1690565b60118054601254601354601480546040805160206002610100600186161581026000190190951604601f810182900482028301820190935282825260ff8089169994909804909716966001600160a01b03861695600160a01b900460e01b949192908301828280156113765780601f1061134b57610100808354040283529160200191611376565b820191906000526020600020905b81548152906001019060200180831161135957829003601f168201915b50505060048401546005850154600686015460078701546008909701549596929591945092506001600160a01b0391821691168b565b6000610a0a600283611c49565b3390565b600081815260046020526040902080546001600160a01b0319166001600160a01b03841690811790915581906113f282610b61565b6001600160a01b03167f8c5be1e5ebec7d5bd14f71427d1e84f3dd0314c0f7b2291e5b200ac8c7c3b92560405160405180910390a45050565b6001600160a01b0382166114515760405162461bcd60e51b815260040161056a9061346a565b61145a816113ac565b156114775760405162461bcd60e51b815260040161056a906130f8565b61148360008383611c55565b6001600160a01b03821660009081526001602052604090206114a59082611c5e565b506114b260028284611c6a565b5060405181906001600160a01b038416906000907fddf252ad1be2c89b69c2b068fc378daa952ba7f163c4a11628f55a4df523b3ef908290a45050565b8051611502906009906020840190612603565b5050565b6000610a0a82611c80565b600c546001600160a01b0390811691161490565b60007fa9214cc96615e0085d3bb077758db69497dc2dce3b2b1e97bc93c3d18d83efd3826001600160a01b0316637730599e6040518163ffffffff1660e01b815260040160206040518083038186803b15801561158157600080fd5b505afa158015611595573d6000803e3d6000fd5b505050506040513d601f19601f820116820180604052508101906115b9919061295a565b1492915050565b606082828080601f0160208091040260200160405190810160405280939291908181526020018383808284376000920182905250600b54600c5460405163e8e7e2d160e01b815296975091956001600160a01b03918216955063e8e7e2d1945061163293509116903090600401612f09565b60206040518083038186803b15801561164a57600080fd5b505afa15801561165e573d6000803e3d6000fd5b505050506040513d601f19601f820116820180604052508101906116829190612ba1565b600b54600c54600d54604051631cd43d1160e31b81529394506000936001600160a01b039384169363e6a1e888936116c69390821692309290911690600401612f23565b60806040518083038186803b1580156116de57600080fd5b505afa1580156116f2573d6000803e3d6000fd5b505050506040513d601f19601f820116820180604052508101906117169190612d15565b5090925050508181016000600b82900b1215611730576000035b600b81900b61182e57600a54600b54600c54600d546040805160008152602081019091526001600160a01b0394851694634329d29394811693635a5999e360e11b936117889391831692309291169060448101612f46565b60408051601f198184030181529181526020820180516001600160e01b03166001600160e01b03199485161790525160e085901b90921682526117d092918990600401612ec0565b600060405180830381600087803b1580156117ea57600080fd5b505af11580156117fe573d6000803e3d6000fd5b505050506040513d6000823e601f3d908101601f1916820160405261182691908101906129dd565b509350611976565b600b82900b1561188657600a54600b54600c54600d546040805160008152602081019091526001600160a01b0394851694634329d293948116936328104d3160e11b9361178893918316921690889060448101612f7a565b600a54600b54600c54600d546040805160008152602081019091526001600160a01b0394851694634329d2939481169363317e182f60e11b936118d493918316921690889060448101612f7a565b60408051601f198184030181529181526020820180516001600160e01b03166001600160e01b03199485161790525160e085901b909216825261191c92918990600401612ec0565b600060405180830381600087803b15801561193657600080fd5b505af115801561194a573d6000803e3d6000fd5b505050506040513d6000823e601f3d908101601f1916820160405261197291908101906129dd565b5093505b50505092915050565b600061198a826113ac565b6119a65760405162461bcd60e51b815260040161056a906132f3565b60006119b183610b61565b9050806001600160a01b0316846001600160a01b031614806119ec5750836001600160a01b03166119e184610543565b6001600160a01b0316145b806119fc57506119fc8185611295565b949350505050565b826001600160a01b0316611a1782610b61565b6001600160a01b031614611a3d5760405162461bcd60e51b815260040161056a9061351b565b6001600160a01b038216611a635760405162461bcd60e51b815260040161056a906131fb565b611a6e838383611c55565b611a796000826113bd565b6001600160a01b0383166000908152600160205260409020611a9b9082611c84565b506001600160a01b0382166000908152600160205260409020611abe9082611c5e565b50611acb60028284611c6a565b5080826001600160a01b0316846001600160a01b03167fddf252ad1be2c89b69c2b068fc378daa952ba7f163c4a11628f55a4df523b3ef60405160405180910390a4505050565b6000610a078383611c90565b6000808080611b2d8686611cd5565b909450925050505b9250929050565b60006119fc848484611d31565b611b54848484611a04565b611b6084848484611d90565b610dd95760405162461bcd60e51b815260040161056a90613076565b6000611b8782610b61565b9050611b9581600084611c55565b611ba06000836113bd565b6000828152600860205260409020546002600019610100600184161502019091160415611bde576000828152600860205260408120611bde91612681565b6001600160a01b0381166000908152600160205260409020611c009083611c84565b50611c0c600283611e6f565b5060405182906000906001600160a01b038416907fddf252ad1be2c89b69c2b068fc378daa952ba7f163c4a11628f55a4df523b3ef908390a45050565b6000610a078383611e7b565b61062282611e93565b6000610a078383612217565b60006119fc84846001600160a01b038516612261565b5490565b6000610a0783836122f8565b81546000908210611cb35760405162461bcd60e51b815260040161056a90612ff3565b826000018281548110611cc257fe5b9060005260206000200154905092915050565b815460009081908310611cfa5760405162461bcd60e51b815260040161056a90613428565b6000846000018481548110611d0b57fe5b906000526020600020906002020190508060000154816001015492509250509250929050565b60008281526001840160205260408120548281611d615760405162461bcd60e51b815260040161056a9190612e39565b50846000016001820381548110611d7457fe5b9060005260206000209060020201600101549150509392505050565b6000611da4846001600160a01b03166123c5565b611db0575060016119fc565b6060611e38630a85bd0160e11b611dc56113b9565b888787604051602401611ddb9493929190612dc2565b604051602081830303815290604052906001600160e01b0319166020820180516001600160e01b03838183161783525050505060405180606001604052806032815260200161387c603291396001600160a01b03881691906123cb565b9050600081806020019051810190611e50919061298e565b6001600160e01b031916630a85bd0160e11b1492505050949350505050565b6000610a0783836123da565b60009081526001919091016020526040902054151590565b6001600160a01b038116611eb95760405162461bcd60e51b815260040161056a90613276565b600a54604051631e51d6a760e11b81526001600160a01b0390911690633ca3ad4e90611ee9908490600401612dae565b60206040518083038186803b158015611f0157600080fd5b505afa158015611f15573d6000803e3d6000fd5b505050506040513d601f19601f82011682018060405250810190611f39919061293e565b15611f565760405162461bcd60e51b815260040161056a906133e6565b600d546001600160a01b0382811691161415611f7157610eb0565b600a54600b54600c54600d546040805160008152602081019091526001600160a01b03948516946339255d5b94811693635a5999e360e11b93611fc09391831692309291169060448101612f46565b60408051601f198184030181529181526020820180516001600160e01b03166001600160e01b03199485161790525160e085901b90921682526120069291600401612e82565b600060405180830381600087803b15801561202057600080fd5b505af1158015612034573d6000803e3d6000fd5b505050506040513d6000823e601f3d908101601f1916820160405261205c91908101906129aa565b50600a54600b54600c5460405163e8e7e2d160e01b81526001600160a01b03938416936339255d5b9381169263317e182f60e11b929116908690849063e8e7e2d1906120ae9085903090600401612f09565b60206040518083038186803b1580156120c657600080fd5b505afa1580156120da573d6000803e3d6000fd5b505050506040513d601f19601f820116820180604052508101906120fe9190612ba1565b60405160240161211093929190612fb0565b60408051601f19818403018152918152602080830180516001600160e01b03166001600160e01b03199586161790528151600081529081019182905260e086901b9093169052612164929160248101612e4c565b600060405180830381600087803b15801561217e57600080fd5b505af1158015612192573d6000803e3d6000fd5b505050506040513d6000823e601f3d908101601f191682016040526121ba91908101906129aa565b50600d80546001600160a01b0319166001600160a01b0383811691909117918290556040517f7dfb1d59db37a3fd2e15e796c189dcab714cdbb18650d68a1de58f8fa60718c99261220c921690612dae565b60405180910390a150565b60006122238383611e7b565b61225957508154600181810184556000848152602080822090930184905584548482528286019093526040902091909155610a0a565b506000610a0a565b6000828152600184016020526040812054806122c6575050604080518082018252838152602080820184815286546001818101895560008981528481209551600290930290950191825591519082015586548684528188019092529290912055610f80565b828560000160018303815481106122d957fe5b9060005260206000209060020201600101819055506000915050610f80565b600081815260018301602052604081205480156123b4578354600019808301919081019060009087908390811061232b57fe5b906000526020600020015490508087600001848154811061234857fe5b60009182526020808320909101929092558281526001898101909252604090209084019055865487908061237857fe5b60019003818190600052602060002001600090559055866001016000878152602001908152602001600020600090556001945050505050610a0a565b6000915050610a0a565b5092915050565b3b151590565b60606119fc84846000856124ae565b600081815260018301602052604081205480156123b4578354600019808301919081019060009087908390811061240d57fe5b906000526020600020906002020190508087600001848154811061242d57fe5b60009182526020808320845460029093020191825560019384015491840191909155835482528983019052604090209084019055865487908061246c57fe5b6000828152602080822060026000199094019384020182815560019081018390559290935588815289820190925260408220919091559450610a0a9350505050565b6060824710156124d05760405162461bcd60e51b815260040161056a906132ad565b6124d9856123c5565b6124f55760405162461bcd60e51b815260040161056a90613694565b60006060866001600160a01b031685876040516125129190612d92565b60006040518083038185875af1925050503d806000811461254f576040519150601f19603f3d011682016040523d82523d6000602084013e612554565b606091505b509150915061256482828661256f565b979650505050505050565b6060831561257e575081610f80565b82511561258e5782518084602001fd5b8160405162461bcd60e51b815260040161056a9190612e39565b604080516101608101825260008082526020820181905291810182905260608082018390526080820183905260a082015260c0810182905260e081018290526101008101829052610120810182905261014081019190915290565b828054600181600116156101000203166002900490600052602060002090601f016020900481019282601f1061264457805160ff1916838001178555612671565b82800160010185558215612671579182015b82811115612671578251825591602001919060010190612656565b5061267d9291506126c1565b5090565b50805460018160011615610100020316600290046000825580601f106126a75750610eb0565b601f016020900490600052602060002090810190610eb091905b5b8082111561267d57600081556001016126c2565b8051610a0a81613842565b8051610a0a81613865565b60008083601f8401126126fd578182fd5b50813567ffffffffffffffff811115612714578182fd5b602083019150836020828501011115611b3557600080fd5b600082601f83011261273c578081fd5b813561274f61274a826137f2565b6137cb565b915080825283602082850101111561276657600080fd5b8060208401602084013760009082016020015292915050565b600082601f83011261278f578081fd5b815161279d61274a826137f2565b91508082528360208285010111156127b457600080fd5b6123be816020840160208601613816565b8051600b81900b8114610a0a57600080fd5b805160ff81168114610a0a57600080fd5b6000602082840312156127f9578081fd5b8135610f8081613842565b60008060408385031215612816578081fd5b823561282181613842565b9150602083013561283181613842565b809150509250929050565b600080600060608486031215612850578081fd5b833561285b81613842565b9250602084013561286b81613842565b929592945050506040919091013590565b60008060008060808587031215612891578081fd5b843561289c81613842565b935060208501356128ac81613842565b925060408501359150606085013567ffffffffffffffff8111156128ce578182fd5b6128da8782880161272c565b91505092959194509250565b600080604083850312156128f8578182fd5b823561290381613842565b9150602083013561283181613857565b60008060408385031215612925578182fd5b823561293081613842565b946020939093013593505050565b60006020828403121561294f578081fd5b8151610f8081613857565b60006020828403121561296b578081fd5b5051919050565b600060208284031215612983578081fd5b8135610f8081613865565b60006020828403121561299f578081fd5b8151610f8081613865565b6000602082840312156129bb578081fd5b815167ffffffffffffffff8111156129d1578182fd5b6119fc8482850161277f565b600080604083850312156129ef578182fd5b825167ffffffffffffffff80821115612a06578384fd5b612a128683870161277f565b93506020850151915080821115612a27578283fd5b50612a348582860161277f565b9150509250929050565b600080600080600080600060a0888a031215612a58578485fd5b8735612a6381613842565b96506020880135612a7381613842565b955060408801359450606088013567ffffffffffffffff80821115612a96578485fd5b612aa28b838c016126ec565b909650945060808a0135915080821115612aba578384fd5b50612ac78a828b016126ec565b989b979a50959850939692959293505050565b600080600080600080600080600060c08a8c031215612af7578283fd5b8935612b0281613842565b985060208a0135612b1281613842565b975060408a0135965060608a013567ffffffffffffffff80821115612b35578485fd5b612b418d838e016126ec565b909850965060808c0135915080821115612b59578485fd5b612b658d838e016126ec565b909650945060a08c0135915080821115612b7d578384fd5b50612b8a8c828d016126ec565b915080935050809150509295985092959850929598565b600060208284031215612bb2578081fd5b610a0783836127c5565b600060208284031215612bcd578081fd5b813567ffffffffffffffff811115612be3578182fd5b6119fc8482850161272c565b600060208284031215612c00578081fd5b815167ffffffffffffffff80821115612c17578283fd5b8184019150610160808387031215612c2d578384fd5b612c36816137cb565b9050612c4286846127d7565b8152612c5186602085016127d7565b602082015260408301516040820152612c6d86606085016126d6565b6060820152612c7f86608085016126e1565b608082015260a083015182811115612c95578485fd5b612ca18782860161277f565b60a08301525060c083015160c082015260e083015160e0820152610100915081830151828201526101209150612cd9868385016126d6565b828201526101409150612cee868385016126d6565b91810191909152949350505050565b600060208284031215612d0e578081fd5b5035919050565b60008060008060808587031215612d2a578182fd5b84519350612d3b86602087016127c5565b6040860151606090960151949790965092505050565b60008151808452612d69816020860160208601613816565b601f01601f19169290920160200192915050565b6002815261060f60f31b602082015260400190565b60008251612da4818460208701613816565b9190910192915050565b6001600160a01b0391909116815260200190565b6001600160a01b0385811682528416602082015260408101839052608060608201819052600090612df590830184612d51565b9695505050505050565b901515815260200190565b60006020825282602083015282846040840137818301604090810191909152601f909201601f19160101919050565b600060208252610a076020830184612d51565b6001600160a01b0384168152606060208201819052600090612e7090830185612d51565b8281036040840152612df58185612d51565b6001600160a01b0383168152606060208201819052600090612ea690830184612d51565b8281036040840152612eb781612d7d565b95945050505050565b6001600160a01b0384168152608060208201819052600090612ee490830185612d51565b8281036040840152612ef581612d7d565b90508281036060840152612df58185612d51565b6001600160a01b0392831681529116602082015260400190565b6001600160a01b0393841681529183166020830152909116604082015260600190565b6001600160a01b038581168252848116602083015283166040820152608060608201819052600090612df590830184612d51565b6001600160a01b03858116825284166020820152600b83900b6040820152608060608201819052600090612df590830184612d51565b6001600160a01b03848116825283166020820152600b82900b6040820152608060608201819052600090612eb7908301612d7d565b600b9190910b815260200190565b60208082526022908201527f456e756d657261626c655365743a20696e646578206f7574206f6620626f756e604082015261647360f01b606082015260800190565b60208082526021908201527f5265646972656374416c6c3a206f6e6c7920434641763120737570706f7274656040820152601960fa1b606082015260800190565b60208082526032908201527f4552433732313a207472616e7366657220746f206e6f6e20455243373231526560408201527131b2b4bb32b91034b6b83632b6b2b73a32b960711b606082015260800190565b6020808252601690820152751d1bdbc81b585b9e481d1bdad95b9cc81b5a5b9d195960521b604082015260600190565b6020808252601c908201527f4552433732313a20746f6b656e20616c7265616479206d696e74656400000000604082015260600190565b6020808252601f908201527f5265646972656374416c6c3a206e6f7420616363657074656420746f6b656e00604082015260600190565b60208082526033908201527f556e737570706f727465642063616c6c6261636b202d20204265666f7265204160408201527219dc99595b595b9d0815195c9b5a5b985d1959606a1b606082015260800190565b60208082526022908201527f5265646972656374416c6c3a20737570706f7274206f6e6c79206f6e6520686f6040820152611cdd60f21b606082015260800190565b60208082526024908201527f4552433732313a207472616e7366657220746f20746865207a65726f206164646040820152637265737360e01b606082015260800190565b60208082526019908201527f4552433732313a20617070726f766520746f2063616c6c657200000000000000604082015260600190565b6020808252601c908201527f4e6577207265636569766572206973207a65726f206164647265737300000000604082015260600190565b60208082526026908201527f416464726573733a20696e73756666696369656e742062616c616e636520666f6040820152651c8818d85b1b60d21b606082015260800190565b6020808252602c908201527f4552433732313a206f70657261746f7220717565727920666f72206e6f6e657860408201526b34b9ba32b73a103a37b5b2b760a11b606082015260800190565b60208082526038908201527f4552433732313a20617070726f76652063616c6c6572206973206e6f74206f7760408201527f6e6572206e6f7220617070726f76656420666f7220616c6c0000000000000000606082015260800190565b6020808252602a908201527f4552433732313a2062616c616e636520717565727920666f7220746865207a65604082015269726f206164647265737360b01b606082015260800190565b60208082526022908201527f4e65772072656365697665722063616e206e6f74206265206120737570657241604082015261070760f41b606082015260800190565b60208082526022908201527f456e756d657261626c654d61703a20696e646578206f7574206f6620626f756e604082015261647360f01b606082015260800190565b6020808252818101527f4552433732313a206d696e7420746f20746865207a65726f2061646472657373604082015260600190565b6020808252602c908201527f4552433732313a20617070726f76656420717565727920666f72206e6f6e657860408201526b34b9ba32b73a103a37b5b2b760a11b606082015260800190565b6020808252601690820152752737ba103a34329037bbb732b91037b3102a37b5b2b760511b604082015260600190565b60208082526029908201527f4552433732313a207472616e73666572206f6620746f6b656e2074686174206960408201526839903737ba1037bbb760b91b606082015260800190565b6020808252602f908201527f4552433732314d657461646174613a2055524920717565727920666f72206e6f60408201526e3732bc34b9ba32b73a103a37b5b2b760891b606082015260800190565b60208082526021908201527f4552433732313a20617070726f76616c20746f2063757272656e74206f776e656040820152603960f91b606082015260800190565b6020808252602f908201527f556e737570706f727465642063616c6c6261636b202d204265666f726520416760408201526e1c99595b595b9d081d5c19185d1959608a1b606082015260800190565b60208082526031908201527f4552433732313a207472616e736665722063616c6c6572206973206e6f74206f6040820152701ddb995c881b9bdc88185c1c1c9bdd9959607a1b606082015260800190565b6020808252601d908201527f416464726573733a2063616c6c20746f206e6f6e2d636f6e7472616374000000604082015260600190565b6020808252602f908201527f556e737570706f727465642063616c6c6261636b202d204265666f726520416760408201526e1c99595b595b9d0810dc99585d1959608a1b606082015260800190565b90815260200190565b9283526001600160a01b03919091166020830152600b0b604082015260600190565b60ff8c811682528b166020820152604081018a90526001600160a01b0389811660608301526001600160e01b03198916608083015261016060a083018190526000916137938483018b612d51565b60c085019990995260e08401979097525050610100810193909352908316610120830152909116610140909101529695505050505050565b60405181810167ffffffffffffffff811182821017156137ea57600080fd5b604052919050565b600067ffffffffffffffff821115613808578081fd5b50601f01601f191660200190565b60005b83811015613831578181015183820152602001613819565b83811115610dd95750506000910152565b6001600160a01b0381168114610eb057600080fd5b8015158114610eb057600080fd5b6001600160e01b031981168114610eb057600080fdfe4552433732313a207472616e7366657220746f206e6f6e20455243373231526563656976657220696d706c656d656e746572697066733a2f2f516d52336e4b367375754b6d7367445a4472615946354a434a4e554e44334a4859676e594a587a47556f684c394c2f312e6a736f6e4552433732313a206f776e657220717565727920666f72206e6f6e6578697374656e7420746f6b656ea2646970667358221220a6786a03f7ba70b4333ceb355055182e8e997fa6abaab06d1f036515a15630fc64736f6c63430007010033",
  "linkReferences": {},
  "deployedLinkReferences": {}
}