{
  "_format": "hh-sol-artifact-1",
  "contractName": "RedirectAll",
  "sourceName": "contracts/RedirectAll.sol",
  "abi": [
    {
      "inputs": [
        {
          "internalType": "contract ISuperfluid",
          "name": "host",
          "type": "address"
        },
        {
          "internalType": "contract IConstantFlowAgreementV1",
          "name": "cfa",
          "type": "address"
        },
        {
          "internalType": "contract ISuperToken",
          "name": "acceptedToken",
          "type": "address"
        },
        {
          "internalType": "address",
          "name": "receiver",
          "type": "address"
        }
      ],
      "stateMutability": "nonpayable",
      "type": "constructor"
    },
    {
      "anonymous": false,
      "inputs": [
        {
          "indexed": false,
          "internalType": "address",
          "name": "receiver",
          "type": "address"
        }
      ],
      "name": "ReceiverChanged",
      "type": "event"
    },
    {
      "inputs": [
        {
          "internalType": "contract ISuperToken",
          "name": "_superToken",
          "type": "address"
        },
        {
          "internalType": "address",
          "name": "_agreementClass",
          "type": "address"
        },
        {
          "internalType": "bytes32",
          "name": "",
          "type": "bytes32"
        },
        {
          "internalType": "bytes",
          "name": "",
          "type": "bytes"
        },
        {
          "internalType": "bytes",
          "name": "",
          "type": "bytes"
        },
        {
          "internalType": "bytes",
          "name": "_ctx",
          "type": "bytes"
        }
      ],
      "name": "afterAgreementCreated",
      "outputs": [
        {
          "internalType": "bytes",
          "name": "newCtx",
          "type": "bytes"
        }
      ],
      "stateMutability": "nonpayable",
      "type": "function"
    },
    {
      "inputs": [
        {
          "internalType": "contract ISuperToken",
          "name": "_superToken",
          "type": "address"
        },
        {
          "internalType": "address",
          "name": "_agreementClass",
          "type": "address"
        },
        {
          "internalType": "bytes32",
          "name": "",
          "type": "bytes32"
        },
        {
          "internalType": "bytes",
          "name": "",
          "type": "bytes"
        },
        {
          "internalType": "bytes",
          "name": "",
          "type": "bytes"
        },
        {
          "internalType": "bytes",
          "name": "_ctx",
          "type": "bytes"
        }
      ],
      "name": "afterAgreementTerminated",
      "outputs": [
        {
          "internalType": "bytes",
          "name": "newCtx",
          "type": "bytes"
        }
      ],
      "stateMutability": "nonpayable",
      "type": "function"
    },
    {
      "inputs": [
        {
          "internalType": "contract ISuperToken",
          "name": "_superToken",
          "type": "address"
        },
        {
          "internalType": "address",
          "name": "_agreementClass",
          "type": "address"
        },
        {
          "internalType": "bytes32",
          "name": "",
          "type": "bytes32"
        },
        {
          "internalType": "bytes",
          "name": "agreementData",
          "type": "bytes"
        },
        {
          "internalType": "bytes",
          "name": "",
          "type": "bytes"
        },
        {
          "internalType": "bytes",
          "name": "_ctx",
          "type": "bytes"
        }
      ],
      "name": "afterAgreementUpdated",
      "outputs": [
        {
          "internalType": "bytes",
          "name": "newCtx",
          "type": "bytes"
        }
      ],
      "stateMutability": "nonpayable",
      "type": "function"
    },
    {
      "inputs": [
        {
          "internalType": "contract ISuperToken",
          "name": "",
          "type": "address"
        },
        {
          "internalType": "address",
          "name": "",
          "type": "address"
        },
        {
          "internalType": "bytes32",
          "name": "",
          "type": "bytes32"
        },
        {
          "internalType": "bytes",
          "name": "",
          "type": "bytes"
        },
        {
          "internalType": "bytes",
          "name": "",
          "type": "bytes"
        }
      ],
      "name": "beforeAgreementCreated",
      "outputs": [
        {
          "internalType": "bytes",
          "name": "",
          "type": "bytes"
        }
      ],
      "stateMutability": "view",
      "type": "function"
    },
    {
      "inputs": [
        {
          "internalType": "contract ISuperToken",
          "name": "",
          "type": "address"
        },
        {
          "internalType": "address",
          "name": "",
          "type": "address"
        },
        {
          "internalType": "bytes32",
          "name": "",
          "type": "bytes32"
        },
        {
          "internalType": "bytes",
          "name": "",
          "type": "bytes"
        },
        {
          "internalType": "bytes",
          "name": "",
          "type": "bytes"
        }
      ],
      "name": "beforeAgreementTerminated",
      "outputs": [
        {
          "internalType": "bytes",
          "name": "",
          "type": "bytes"
        }
      ],
      "stateMutability": "view",
      "type": "function"
    },
    {
      "inputs": [
        {
          "internalType": "contract ISuperToken",
          "name": "",
          "type": "address"
        },
        {
          "internalType": "address",
          "name": "",
          "type": "address"
        },
        {
          "internalType": "bytes32",
          "name": "",
          "type": "bytes32"
        },
        {
          "internalType": "bytes",
          "name": "",
          "type": "bytes"
        },
        {
          "internalType": "bytes",
          "name": "",
          "type": "bytes"
        }
      ],
      "name": "beforeAgreementUpdated",
      "outputs": [
        {
          "internalType": "bytes",
          "name": "",
          "type": "bytes"
        }
      ],
      "stateMutability": "view",
      "type": "function"
    },
    {
      "inputs": [],
      "name": "currentReceiver",
      "outputs": [
        {
          "internalType": "uint256",
          "name": "startTime",
          "type": "uint256"
        },
        {
          "internalType": "address",
          "name": "receiver",
          "type": "address"
        },
        {
          "internalType": "int96",
          "name": "flowRate",
          "type": "int96"
        }
      ],
      "stateMutability": "view",
      "type": "function"
    }
  ],
  "bytecode": "0x60806040523480156200001157600080fd5b506040516200127138038062001271833981016040819052620000349162000262565b6001600160a01b038416620000665760405162461bcd60e51b81526004016200005d9062000382565b60405180910390fd5b6001600160a01b0383166200008f5760405162461bcd60e51b81526004016200005d906200034b565b6001600160a01b038216620000b85760405162461bcd60e51b81526004016200005d90620002dd565b6001600160a01b038116620000e15760405162461bcd60e51b81526004016200005d9062000314565b604051631e51d6a760e11b81526001600160a01b03851690633ca3ad4e906200010f908490600401620002c9565b60206040518083038186803b1580156200012857600080fd5b505afa1580156200013d573d6000803e3d6000fd5b505050506040513d601f19601f8201168201806040525081019062000163919062000239565b15620001835760405162461bcd60e51b81526004016200005d90620003b9565b600080546001600160a01b03199081166001600160a01b03878116919091179283905560018054831687831617905560028054831686831617905560038054909216848216179091556040516315a722b960e31b8152641500000001929091169063ad3915c890620001fa908490600401620003e5565b600060405180830381600087803b1580156200021557600080fd5b505af11580156200022a573d6000803e3d6000fd5b50505050505050505062000407565b6000602082840312156200024b578081fd5b815180151581146200025b578182fd5b9392505050565b6000806000806080858703121562000278578283fd5b84516200028581620003ee565b60208601519094506200029881620003ee565b6040860151909350620002ab81620003ee565b6060860151909250620002be81620003ee565b939692955090935050565b6001600160a01b0391909116815260200190565b6020808252601d908201527f6163636570746564546f6b656e206973207a65726f2061646472657373000000604082015260600190565b60208082526018908201527f7265636569766572206973207a65726f20616464726573730000000000000000604082015260600190565b60208082526013908201527f636661206973207a65726f206164647265737300000000000000000000000000604082015260600190565b60208082526014908201527f686f7374206973207a65726f2061646472657373000000000000000000000000604082015260600190565b6020808252601290820152710726563656976657220697320616e206170760741b604082015260600190565b90815260200190565b6001600160a01b03811681146200040457600080fd5b50565b610e5a80620004176000396000f3fe608060405234801561001057600080fd5b506004361061007d5760003560e01c806353c11f991161005b57806353c11f99146100d55780635f9e7d77146100e8578063884d1f40146100fb578063d86ed3e5146100825761007d565b8063230dbd291461008257806328d2bf94146100ab57806330d9c915146100c2575b600080fd5b6100956100903660046109a7565b61010e565b6040516100a29190610af8565b60405180910390f35b6100b36101a9565b6040516100a293929190610dba565b6100956100d036600461090b565b61026c565b6100956100e33660046109a7565b610286565b6100956100f636600461090b565b61032c565b61009561010936600461090b565b610346565b6060898961011b82610360565b6101405760405162461bcd60e51b815260040161013790610c50565b60405180910390fd5b61014981610374565b6101655760405162461bcd60e51b815260040161013790610c0f565b6000546001600160a01b0316331461018f5760405162461bcd60e51b815260040161013790610cda565b610199858561040f565b9c9b505050505050505050505050565b600354600090819081906001600160a01b03161561026757600154600254600354604051631cd43d1160e31b81526001600160a01b039384169363e6a1e888936101ff9390821692309290911690600401610b82565b60806040518083038186803b15801561021757600080fd5b505afa15801561022b573d6000803e3d6000fd5b505050506040513d601f19601f8201168201806040525081019061024f9190610a90565b50506003549194506001600160a01b03909116925090505b909192565b606060405162461bcd60e51b815260040161013790610d6b565b6000546060906001600160a01b031633146102b35760405162461bcd60e51b815260040161013790610cda565b6102bc8a610360565b15806102ce57506102cc89610374565b155b156103125782828080601f01602080910402602001604051908101604052809392919081815260200183838082843760009201919091525092935061031f92505050565b61031c838361040f565b90505b9998505050505050505050565b606060405162461bcd60e51b815260040161013790610c87565b606060405162461bcd60e51b815260040161013790610d1c565b6002546001600160a01b0390811691161490565b60007fa9214cc96615e0085d3bb077758db69497dc2dce3b2b1e97bc93c3d18d83efd3826001600160a01b0316637730599e6040518163ffffffff1660e01b815260040160206040518083038186803b1580156103d057600080fd5b505afa1580156103e4573d6000803e3d6000fd5b505050506040513d601f19601f820116820180604052508101906104089190610892565b1492915050565b606082828080601f016020809104026020016040519081016040528093929190818152602001838380828437600092018290525060015460025460405163e8e7e2d160e01b815296975091956001600160a01b03918216955063e8e7e2d1945061048193509116903090600401610b68565b60206040518083038186803b15801561049957600080fd5b505afa1580156104ad573d6000803e3d6000fd5b505050506040513d601f19601f820116820180604052508101906104d19190610a6e565b600154600254600354604051631cd43d1160e31b81529394506000936001600160a01b039384169363e6a1e888936105159390821692309290911690600401610b82565b60806040518083038186803b15801561052d57600080fd5b505afa158015610541573d6000803e3d6000fd5b505050506040513d601f19601f820116820180604052508101906105659190610a90565b509092505050818101600b81900b61066d5760008054600154600254600354604080519586526020860190526001600160a01b0393841694634329d2939493841693635a5999e360e11b936105c7939082169230929091169060448101610ba5565b60408051601f198184030181529181526020820180516001600160e01b03166001600160e01b03199485161790525160e085901b909216825261060f92918990600401610b0b565b600060405180830381600087803b15801561062957600080fd5b505af115801561063d573d6000803e3d6000fd5b505050506040513d6000823e601f3d908101601f1916820160405261066591908101906108aa565b5093506107b7565b600b82900b156106c65760008054600154600254600354604080519586526020860190526001600160a01b0393841694634329d29394938416936328104d3160e11b936105c79390821692911690889060448101610bd9565b60008054600154600254600354604080519586526020860190526001600160a01b0393841694634329d293949384169363317e182f60e11b936107159390821692911690889060448101610bd9565b60408051601f198184030181529181526020820180516001600160e01b03166001600160e01b03199485161790525160e085901b909216825261075d92918990600401610b0b565b600060405180830381600087803b15801561077757600080fd5b505af115801561078b573d6000803e3d6000fd5b505050506040513d6000823e601f3d908101601f191682016040526107b391908101906108aa565b5093505b50505092915050565b60008083601f8401126107d1578182fd5b50813567ffffffffffffffff8111156107e8578182fd5b60208301915083602082850101111561080057600080fd5b9250929050565b600082601f830112610817578081fd5b815167ffffffffffffffff8082111561082e578283fd5b604051601f8301601f19168101602001828111828210171561084e578485fd5b60405282815292508284830160200186101561086957600080fd5b6107b7836020830160208801610ddc565b8051600b81900b811461088c57600080fd5b92915050565b6000602082840312156108a3578081fd5b5051919050565b600080604083850312156108bc578081fd5b825167ffffffffffffffff808211156108d3578283fd5b6108df86838701610807565b935060208501519150808211156108f4578283fd5b5061090185828601610807565b9150509250929050565b600080600080600080600060a0888a031215610925578283fd5b873561093081610e0c565b9650602088013561094081610e0c565b955060408801359450606088013567ffffffffffffffff80821115610963578485fd5b61096f8b838c016107c0565b909650945060808a0135915080821115610987578384fd5b506109948a828b016107c0565b989b979a50959850939692959293505050565b600080600080600080600080600060c08a8c0312156109c4578182fd5b89356109cf81610e0c565b985060208a01356109df81610e0c565b975060408a0135965060608a013567ffffffffffffffff80821115610a02578384fd5b610a0e8d838e016107c0565b909850965060808c0135915080821115610a26578384fd5b610a328d838e016107c0565b909650945060a08c0135915080821115610a4a578384fd5b50610a578c828d016107c0565b915080935050809150509295985092959850929598565b600060208284031215610a7f578081fd5b610a89838361087a565b9392505050565b60008060008060808587031215610aa5578384fd5b84519350610ab6866020870161087a565b6040860151606090960151949790965092505050565b60008151808452610ae4816020860160208601610ddc565b601f01601f19169290920160200192915050565b600060208252610a896020830184610acc565b6001600160a01b0384168152608060208201819052600090610b2f90830185610acc565b8281038060408501526002825261060f60f31b602083015260408101606085015250610b5e6040820185610acc565b9695505050505050565b6001600160a01b0392831681529116602082015260400190565b6001600160a01b0393841681529183166020830152909116604082015260600190565b6001600160a01b038581168252848116602083015283166040820152608060608201819052600090610b5e90830184610acc565b6001600160a01b03858116825284166020820152600b83900b6040820152608060608201819052600090610b5e90830184610acc565b60208082526021908201527f5265646972656374416c6c3a206f6e6c7920434641763120737570706f7274656040820152601960fa1b606082015260800190565b6020808252601f908201527f5265646972656374416c6c3a206e6f7420616363657074656420746f6b656e00604082015260600190565b60208082526033908201527f556e737570706f727465642063616c6c6261636b202d20204265666f7265204160408201527219dc99595b595b9d0815195c9b5a5b985d1959606a1b606082015260800190565b60208082526022908201527f5265646972656374416c6c3a20737570706f7274206f6e6c79206f6e6520686f6040820152611cdd60f21b606082015260800190565b6020808252602f908201527f556e737570706f727465642063616c6c6261636b202d204265666f726520416760408201526e1c99595b595b9d081d5c19185d1959608a1b606082015260800190565b6020808252602f908201527f556e737570706f727465642063616c6c6261636b202d204265666f726520416760408201526e1c99595b595b9d0810dc99585d1959608a1b606082015260800190565b9283526001600160a01b03919091166020830152600b0b604082015260600190565b60005b83811015610df7578181015183820152602001610ddf565b83811115610e06576000848401525b50505050565b6001600160a01b0381168114610e2157600080fd5b5056fea26469706673582212200ac597beb7a94e9634ebf60939f3cc39bc05cf55d0ab7e80dcb55f8e92dbcca264736f6c63430007010033",
  "linkReferences": {},
  "deployedLinkReferences": {}
}