{
  "_format": "hh-sol-artifact-1",
  "contractName": "RedirectAll",
  "sourceName": "contracts/RedirectAll.sol",
  "abi": [
    {
      "inputs": [
        {
          "internalType": "contract ISuperfluid",
          "name": "host",
          "type": "address"
        },
        {
          "internalType": "contract IConstantFlowAgreementV1",
          "name": "cfa",
          "type": "address"
        },
        {
          "internalType": "contract ISuperToken",
          "name": "acceptedToken",
          "type": "address"
        },
        {
          "internalType": "address",
          "name": "receiver",
          "type": "address"
        }
      ],
      "stateMutability": "nonpayable",
      "type": "constructor"
    },
    {
      "anonymous": false,
      "inputs": [
        {
          "indexed": false,
          "internalType": "address",
          "name": "receiver",
          "type": "address"
        }
      ],
      "name": "ReceiverChanged",
      "type": "event"
    },
    {
      "inputs": [],
      "name": "_host",
      "outputs": [
        {
          "internalType": "contract ISuperfluid",
          "name": "",
          "type": "address"
        }
      ],
      "stateMutability": "view",
      "type": "function"
    },
    {
      "inputs": [],
      "name": "_receiver",
      "outputs": [
        {
          "internalType": "address",
          "name": "",
          "type": "address"
        }
      ],
      "stateMutability": "view",
      "type": "function"
    },
    {
      "inputs": [
        {
          "internalType": "contract ISuperToken",
          "name": "_superToken",
          "type": "address"
        },
        {
          "internalType": "address",
          "name": "_agreementClass",
          "type": "address"
        },
        {
          "internalType": "bytes32",
          "name": "",
          "type": "bytes32"
        },
        {
          "internalType": "bytes",
          "name": "",
          "type": "bytes"
        },
        {
          "internalType": "bytes",
          "name": "",
          "type": "bytes"
        },
        {
          "internalType": "bytes",
          "name": "_ctx",
          "type": "bytes"
        }
      ],
      "name": "afterAgreementCreated",
      "outputs": [
        {
          "internalType": "bytes",
          "name": "newCtx",
          "type": "bytes"
        }
      ],
      "stateMutability": "nonpayable",
      "type": "function"
    },
    {
      "inputs": [
        {
          "internalType": "contract ISuperToken",
          "name": "_superToken",
          "type": "address"
        },
        {
          "internalType": "address",
          "name": "_agreementClass",
          "type": "address"
        },
        {
          "internalType": "bytes32",
          "name": "",
          "type": "bytes32"
        },
        {
          "internalType": "bytes",
          "name": "",
          "type": "bytes"
        },
        {
          "internalType": "bytes",
          "name": "",
          "type": "bytes"
        },
        {
          "internalType": "bytes",
          "name": "_ctx",
          "type": "bytes"
        }
      ],
      "name": "afterAgreementTerminated",
      "outputs": [
        {
          "internalType": "bytes",
          "name": "newCtx",
          "type": "bytes"
        }
      ],
      "stateMutability": "nonpayable",
      "type": "function"
    },
    {
      "inputs": [
        {
          "internalType": "contract ISuperToken",
          "name": "_superToken",
          "type": "address"
        },
        {
          "internalType": "address",
          "name": "_agreementClass",
          "type": "address"
        },
        {
          "internalType": "bytes32",
          "name": "",
          "type": "bytes32"
        },
        {
          "internalType": "bytes",
          "name": "",
          "type": "bytes"
        },
        {
          "internalType": "bytes",
          "name": "",
          "type": "bytes"
        },
        {
          "internalType": "bytes",
          "name": "_ctx",
          "type": "bytes"
        }
      ],
      "name": "afterAgreementUpdated",
      "outputs": [
        {
          "internalType": "bytes",
          "name": "newCtx",
          "type": "bytes"
        }
      ],
      "stateMutability": "nonpayable",
      "type": "function"
    },
    {
      "inputs": [
        {
          "internalType": "contract ISuperToken",
          "name": "",
          "type": "address"
        },
        {
          "internalType": "address",
          "name": "",
          "type": "address"
        },
        {
          "internalType": "bytes32",
          "name": "",
          "type": "bytes32"
        },
        {
          "internalType": "bytes",
          "name": "",
          "type": "bytes"
        },
        {
          "internalType": "bytes",
          "name": "",
          "type": "bytes"
        }
      ],
      "name": "beforeAgreementCreated",
      "outputs": [
        {
          "internalType": "bytes",
          "name": "",
          "type": "bytes"
        }
      ],
      "stateMutability": "view",
      "type": "function"
    },
    {
      "inputs": [
        {
          "internalType": "contract ISuperToken",
          "name": "",
          "type": "address"
        },
        {
          "internalType": "address",
          "name": "",
          "type": "address"
        },
        {
          "internalType": "bytes32",
          "name": "",
          "type": "bytes32"
        },
        {
          "internalType": "bytes",
          "name": "",
          "type": "bytes"
        },
        {
          "internalType": "bytes",
          "name": "",
          "type": "bytes"
        }
      ],
      "name": "beforeAgreementTerminated",
      "outputs": [
        {
          "internalType": "bytes",
          "name": "",
          "type": "bytes"
        }
      ],
      "stateMutability": "view",
      "type": "function"
    },
    {
      "inputs": [
        {
          "internalType": "contract ISuperToken",
          "name": "",
          "type": "address"
        },
        {
          "internalType": "address",
          "name": "",
          "type": "address"
        },
        {
          "internalType": "bytes32",
          "name": "",
          "type": "bytes32"
        },
        {
          "internalType": "bytes",
          "name": "",
          "type": "bytes"
        },
        {
          "internalType": "bytes",
          "name": "",
          "type": "bytes"
        }
      ],
      "name": "beforeAgreementUpdated",
      "outputs": [
        {
          "internalType": "bytes",
          "name": "",
          "type": "bytes"
        }
      ],
      "stateMutability": "view",
      "type": "function"
    },
    {
      "inputs": [],
      "name": "currentReceiver",
      "outputs": [
        {
          "internalType": "uint256",
          "name": "startTime",
          "type": "uint256"
        },
        {
          "internalType": "address",
          "name": "receiver",
          "type": "address"
        },
        {
          "internalType": "int96",
          "name": "flowRate",
          "type": "int96"
        }
      ],
      "stateMutability": "view",
      "type": "function"
    },
    {
      "inputs": [],
      "name": "uData",
      "outputs": [
        {
          "internalType": "uint8",
          "name": "appLevel",
          "type": "uint8"
        },
        {
          "internalType": "uint8",
          "name": "callType",
          "type": "uint8"
        },
        {
          "internalType": "uint256",
          "name": "timestamp",
          "type": "uint256"
        },
        {
          "internalType": "address",
          "name": "msgSender",
          "type": "address"
        },
        {
          "internalType": "bytes4",
          "name": "agreementSelector",
          "type": "bytes4"
        },
        {
          "internalType": "bytes",
          "name": "userData",
          "type": "bytes"
        },
        {
          "internalType": "uint256",
          "name": "appAllowanceGranted",
          "type": "uint256"
        },
        {
          "internalType": "uint256",
          "name": "appAllowanceWanted",
          "type": "uint256"
        },
        {
          "internalType": "int256",
          "name": "appAllowanceUsed",
          "type": "int256"
        },
        {
          "internalType": "address",
          "name": "appAddress",
          "type": "address"
        },
        {
          "internalType": "contract ISuperfluidToken",
          "name": "appAllowanceToken",
          "type": "address"
        }
      ],
      "stateMutability": "view",
      "type": "function"
    },
    {
      "inputs": [],
      "name": "userData",
      "outputs": [
        {
          "internalType": "string",
          "name": "",
          "type": "string"
        }
      ],
      "stateMutability": "view",
      "type": "function"
    }
  ],
  "bytecode": "0x60806040523480156200001157600080fd5b50604051620017593803806200175983398101604081905262000034916200012e565b6001600160a01b0384166200004557fe5b6001600160a01b0383166200005657fe5b6001600160a01b0382166200006757fe5b6001600160a01b0381166200007857fe5b600080546001600160a01b03199081166001600160a01b03878116919091179283905560018054831687831617905560028054831686831617905560038054909216848216179091556040516315a722b960e31b8152641500000001929091169063ad3915c890620000ef90849060040162000195565b600060405180830381600087803b1580156200010a57600080fd5b505af11580156200011f573d6000803e3d6000fd5b505050505050505050620001b7565b6000806000806080858703121562000144578384fd5b845162000151816200019e565b602086015190945062000164816200019e565b604086015190935062000177816200019e565b60608601519092506200018a816200019e565b939692955090935050565b90815260200190565b6001600160a01b0381168114620001b457600080fd5b50565b61159280620001c76000396000f3fe608060405234801561001057600080fd5b50600436106100a95760003560e01c80635f9e7d77116100715780635f9e7d7714610129578063852e5a0a1461013c578063884d1f4014610144578063bea6998f14610157578063d86ed3e5146100cc578063ecf08fae1461015f576100a9565b806302964ff1146100ae578063230dbd29146100cc57806328d2bf94146100ec57806330d9c9151461010357806353c11f9914610116575b600080fd5b6100b661017e565b6040516100c39190611140565b60405180910390f35b6100df6100da366004610ea6565b61018d565b6040516100c39190611183565b6100f46103db565b6040516100c393929190611445565b6100df610111366004610e0a565b61049e565b6100df610124366004610ea6565b6104b8565b6100df610137366004610e0a565b61057d565b6100b6610597565b6100df610152366004610e0a565b6105a6565b6100df6105c0565b61016761064e565b6040516100c39b9a99989796959493929190611467565b6003546001600160a01b031681565b6060898961019a82610737565b6101bf5760405162461bcd60e51b81526004016101b6906112db565b60405180910390fd5b6101c88161074b565b6101e45760405162461bcd60e51b81526004016101b69061129a565b6000546001600160a01b0316331461020e5760405162461bcd60e51b81526004016101b690611365565b610216610ba8565b600054604051631fb6491d60e11b81526001600160a01b0390911690633f6c923a906102489089908990600401611154565b60006040518083038186803b15801561026057600080fd5b505afa158015610274573d6000803e3d6000fd5b505050506040513d6000823e601f3d908101601f1916820160405261029c9190810190610fca565b80516004805460208085015160ff1990921660ff9485161761ff0019166101009490921693909302178155604083015160055560608301516006805460808601516001600160a01b03199091166001600160a01b039093169290921763ffffffff60a01b1916600160a01b60e09390931c9290920291909117905560a08301518051939450849391926103359260079290910190610c03565b5060c0820151600482015560e0820151600582015561010082015160068201556101208201516007820180546001600160a01b03199081166001600160a01b03938416179091556101409093015160089092018054909316911617905560a081015180516103ab91602091810182019101610f8f565b80516103bf91600d91602090910190610c03565b506103ca86866107e6565b9d9c50505050505050505050505050565b600354600090819081906001600160a01b03161561049957600154600254600354604051631cd43d1160e31b81526001600160a01b039384169363e6a1e88893610431939082169230929091169060040161120d565b60806040518083038186803b15801561044957600080fd5b505afa15801561045d573d6000803e3d6000fd5b505050506040513d601f19601f8201168201806040525081019061048191906110d8565b50506003549194506001600160a01b03909116925090505b909192565b606060405162461bcd60e51b81526004016101b6906113f6565b6000546060906001600160a01b031633146104e55760405162461bcd60e51b81526004016101b690611365565b6104ee8a610737565b158061050057506104fe8961074b565b155b156105445782828080601f01602080910402602001604051908101604052809392919081815260200183838082843760009201919091525092935061057092505050565b60408051602081019182905260009081905261056291600d91610c03565b5061056d83836107e6565b90505b9998505050505050505050565b606060405162461bcd60e51b81526004016101b690611312565b6000546001600160a01b031681565b606060405162461bcd60e51b81526004016101b6906113a7565b600d805460408051602060026001851615610100026000190190941693909304601f810184900484028201840190925281815292918301828280156106465780601f1061061b57610100808354040283529160200191610646565b820191906000526020600020905b81548152906001019060200180831161062957829003601f168201915b505050505081565b60048054600554600654600780546040805160206002610100600186161581026000190190951604601f810182900482028301820190935282825260ff8089169994909804909716966001600160a01b03861695600160a01b900460e01b949192908301828280156107015780601f106106d657610100808354040283529160200191610701565b820191906000526020600020905b8154815290600101906020018083116106e457829003601f168201915b50505060048401546005850154600686015460078701546008909701549596929591945092506001600160a01b0391821691168b565b6002546001600160a01b0390811691161490565b60007fa9214cc96615e0085d3bb077758db69497dc2dce3b2b1e97bc93c3d18d83efd3826001600160a01b0316637730599e6040518163ffffffff1660e01b815260040160206040518083038186803b1580156107a757600080fd5b505afa1580156107bb573d6000803e3d6000fd5b505050506040513d601f19601f820116820180604052508101906107df9190610d91565b1492915050565b606082828080601f016020809104026020016040519081016040528093929190818152602001838380828437600092018290525060015460025460405163e8e7e2d160e01b815296975091956001600160a01b03918216955063e8e7e2d19450610858935091169030906004016111f3565b60206040518083038186803b15801561087057600080fd5b505afa158015610884573d6000803e3d6000fd5b505050506040513d601f19601f820116820180604052508101906108a89190610f6d565b600154600254600354604051631cd43d1160e31b81529394506000936001600160a01b039384169363e6a1e888936108ec939082169230929091169060040161120d565b60806040518083038186803b15801561090457600080fd5b505afa158015610918573d6000803e3d6000fd5b505050506040513d601f19601f8201168201806040525081019061093c91906110d8565b5090925050508181016000600b82900b1215610956576000035b600b81900b610a555760008054600154600254600354604080519586526020860190526001600160a01b0393841694634329d2939493841693635a5999e360e11b936109af939082169230929091169060448101611230565b60408051601f198184030181529181526020820180516001600160e01b03166001600160e01b03199485161790525160e085901b90921682526109f792918990600401611196565b600060405180830381600087803b158015610a1157600080fd5b505af1158015610a25573d6000803e3d6000fd5b505050506040513d6000823e601f3d908101601f19168201604052610a4d9190810190610da9565b509350610b9f565b600b82900b15610aae5760008054600154600254600354604080519586526020860190526001600160a01b0393841694634329d29394938416936328104d3160e11b936109af9390821692911690889060448101611264565b60008054600154600254600354604080519586526020860190526001600160a01b0393841694634329d293949384169363317e182f60e11b93610afd9390821692911690889060448101611264565b60408051601f198184030181529181526020820180516001600160e01b03166001600160e01b03199485161790525160e085901b9092168252610b4592918990600401611196565b600060405180830381600087803b158015610b5f57600080fd5b505af1158015610b73573d6000803e3d6000fd5b505050506040513d6000823e601f3d908101601f19168201604052610b9b9190810190610da9565b5093505b50505092915050565b604080516101608101825260008082526020820181905291810182905260608082018390526080820183905260a082015260c0810182905260e081018290526101008101829052610120810182905261014081019190915290565b828054600181600116156101000203166002900490600052602060002090601f016020900481019282601f10610c4457805160ff1916838001178555610c71565b82800160010185558215610c71579182015b82811115610c71578251825591602001919060010190610c56565b50610c7d929150610c81565b5090565b5b80821115610c7d5760008155600101610c82565b8051610ca181611544565b92915050565b80516001600160e01b031981168114610ca157600080fd5b60008083601f840112610cd0578182fd5b50813567ffffffffffffffff811115610ce7578182fd5b602083019150836020828501011115610cff57600080fd5b9250929050565b600082601f830112610d16578081fd5b815167ffffffffffffffff811115610d2c578182fd5b610d3f601f8201601f19166020016114ed565b9150808252836020828501011115610d5657600080fd5b610d67816020840160208601611514565b5092915050565b8051600b81900b8114610ca157600080fd5b805160ff81168114610ca157600080fd5b600060208284031215610da2578081fd5b5051919050565b60008060408385031215610dbb578081fd5b825167ffffffffffffffff80821115610dd2578283fd5b610dde86838701610d06565b93506020850151915080821115610df3578283fd5b50610e0085828601610d06565b9150509250929050565b600080600080600080600060a0888a031215610e24578283fd5b8735610e2f81611544565b96506020880135610e3f81611544565b955060408801359450606088013567ffffffffffffffff80821115610e62578485fd5b610e6e8b838c01610cbf565b909650945060808a0135915080821115610e86578384fd5b50610e938a828b01610cbf565b989b979a50959850939692959293505050565b600080600080600080600080600060c08a8c031215610ec3578182fd5b8935610ece81611544565b985060208a0135610ede81611544565b975060408a0135965060608a013567ffffffffffffffff80821115610f01578384fd5b610f0d8d838e01610cbf565b909850965060808c0135915080821115610f25578384fd5b610f318d838e01610cbf565b909650945060a08c0135915080821115610f49578384fd5b50610f568c828d01610cbf565b915080935050809150509295985092959850929598565b600060208284031215610f7e578081fd5b610f888383610d6e565b9392505050565b600060208284031215610fa0578081fd5b815167ffffffffffffffff811115610fb6578182fd5b610fc284828501610d06565b949350505050565b600060208284031215610fdb578081fd5b815167ffffffffffffffff80821115610ff2578283fd5b8184019150610160808387031215611008578384fd5b611011816114ed565b905061101d8684610d80565b815261102c8660208501610d80565b6020820152604083015160408201526110488660608501610c96565b606082015261105a8660808501610ca7565b608082015260a083015182811115611070578485fd5b61107c87828601610d06565b60a08301525060c083015160c082015260e083015160e08201526101009150818301518282015261012091506110b486838501610c96565b8282015261014091506110c986838501610c96565b91810191909152949350505050565b600080600080608085870312156110ed578182fd5b845193506110fe8660208701610d6e565b6040860151606090960151949790965092505050565b6000815180845261112c816020860160208601611514565b601f01601f19169290920160200192915050565b6001600160a01b0391909116815260200190565b60006020825282602083015282846040840137818301604090810191909152601f909201601f19160101919050565b600060208252610f886020830184611114565b6001600160a01b03841681526080602082018190526000906111ba90830185611114565b8281038060408501526002825261060f60f31b6020830152604081016060850152506111e96040820185611114565b9695505050505050565b6001600160a01b0392831681529116602082015260400190565b6001600160a01b0393841681529183166020830152909116604082015260600190565b6001600160a01b0385811682528481166020830152831660408201526080606082018190526000906111e990830184611114565b6001600160a01b03858116825284166020820152600b83900b60408201526080606082018190526000906111e990830184611114565b60208082526021908201527f5265646972656374416c6c3a206f6e6c7920434641763120737570706f7274656040820152601960fa1b606082015260800190565b6020808252601f908201527f5265646972656374416c6c3a206e6f7420616363657074656420746f6b656e00604082015260600190565b60208082526033908201527f556e737570706f727465642063616c6c6261636b202d20204265666f7265204160408201527219dc99595b595b9d0815195c9b5a5b985d1959606a1b606082015260800190565b60208082526022908201527f5265646972656374416c6c3a20737570706f7274206f6e6c79206f6e6520686f6040820152611cdd60f21b606082015260800190565b6020808252602f908201527f556e737570706f727465642063616c6c6261636b202d204265666f726520416760408201526e1c99595b595b9d081d5c19185d1959608a1b606082015260800190565b6020808252602f908201527f556e737570706f727465642063616c6c6261636b202d204265666f726520416760408201526e1c99595b595b9d0810dc99585d1959608a1b606082015260800190565b9283526001600160a01b03919091166020830152600b0b604082015260600190565b60ff8c811682528b166020820152604081018a90526001600160a01b0389811660608301526001600160e01b03198916608083015261016060a083018190526000916114b58483018b611114565b60c085019990995260e08401979097525050610100810193909352908316610120830152909116610140909101529695505050505050565b60405181810167ffffffffffffffff8111828210171561150c57600080fd5b604052919050565b60005b8381101561152f578181015183820152602001611517565b8381111561153e576000848401525b50505050565b6001600160a01b038116811461155957600080fd5b5056fea26469706673582212204e5ecd16c8d58cc3d580f33661e39a286a77e3a41fca34a52694a8597aab74cb64736f6c63430007000033",
  "linkReferences": {},
  "deployedLinkReferences": {}
}