{
  "_format": "hh-sol-artifact-1",
  "contractName": "TradeableCashflow",
  "sourceName": "contracts/TradeableCashflow.sol",
  "abi": [
    {
      "inputs": [
        {
          "internalType": "address",
          "name": "owner",
          "type": "address"
        },
        {
          "internalType": "string",
          "name": "_name",
          "type": "string"
        },
        {
          "internalType": "string",
          "name": "_symbol",
          "type": "string"
        },
        {
          "internalType": "contract ISuperfluid",
          "name": "host",
          "type": "address"
        },
        {
          "internalType": "contract IConstantFlowAgreementV1",
          "name": "cfa",
          "type": "address"
        },
        {
          "internalType": "contract ISuperToken",
          "name": "acceptedToken",
          "type": "address"
        }
      ],
      "stateMutability": "nonpayable",
      "type": "constructor"
    },
    {
      "anonymous": false,
      "inputs": [
        {
          "indexed": true,
          "internalType": "address",
          "name": "owner",
          "type": "address"
        },
        {
          "indexed": true,
          "internalType": "address",
          "name": "approved",
          "type": "address"
        },
        {
          "indexed": true,
          "internalType": "uint256",
          "name": "tokenId",
          "type": "uint256"
        }
      ],
      "name": "Approval",
      "type": "event"
    },
    {
      "anonymous": false,
      "inputs": [
        {
          "indexed": true,
          "internalType": "address",
          "name": "owner",
          "type": "address"
        },
        {
          "indexed": true,
          "internalType": "address",
          "name": "operator",
          "type": "address"
        },
        {
          "indexed": false,
          "internalType": "bool",
          "name": "approved",
          "type": "bool"
        }
      ],
      "name": "ApprovalForAll",
      "type": "event"
    },
    {
      "anonymous": false,
      "inputs": [
        {
          "indexed": false,
          "internalType": "address",
          "name": "receiver",
          "type": "address"
        }
      ],
      "name": "ReceiverChanged",
      "type": "event"
    },
    {
      "anonymous": false,
      "inputs": [
        {
          "indexed": true,
          "internalType": "address",
          "name": "from",
          "type": "address"
        },
        {
          "indexed": true,
          "internalType": "address",
          "name": "to",
          "type": "address"
        },
        {
          "indexed": true,
          "internalType": "uint256",
          "name": "tokenId",
          "type": "uint256"
        }
      ],
      "name": "Transfer",
      "type": "event"
    },
    {
      "inputs": [
        {
          "internalType": "contract ISuperToken",
          "name": "_superToken",
          "type": "address"
        },
        {
          "internalType": "address",
          "name": "_agreementClass",
          "type": "address"
        },
        {
          "internalType": "bytes32",
          "name": "",
          "type": "bytes32"
        },
        {
          "internalType": "bytes",
          "name": "",
          "type": "bytes"
        },
        {
          "internalType": "bytes",
          "name": "",
          "type": "bytes"
        },
        {
          "internalType": "bytes",
          "name": "_ctx",
          "type": "bytes"
        }
      ],
      "name": "afterAgreementCreated",
      "outputs": [
        {
          "internalType": "bytes",
          "name": "newCtx",
          "type": "bytes"
        }
      ],
      "stateMutability": "nonpayable",
      "type": "function"
    },
    {
      "inputs": [
        {
          "internalType": "contract ISuperToken",
          "name": "_superToken",
          "type": "address"
        },
        {
          "internalType": "address",
          "name": "_agreementClass",
          "type": "address"
        },
        {
          "internalType": "bytes32",
          "name": "",
          "type": "bytes32"
        },
        {
          "internalType": "bytes",
          "name": "",
          "type": "bytes"
        },
        {
          "internalType": "bytes",
          "name": "",
          "type": "bytes"
        },
        {
          "internalType": "bytes",
          "name": "_ctx",
          "type": "bytes"
        }
      ],
      "name": "afterAgreementTerminated",
      "outputs": [
        {
          "internalType": "bytes",
          "name": "newCtx",
          "type": "bytes"
        }
      ],
      "stateMutability": "nonpayable",
      "type": "function"
    },
    {
      "inputs": [
        {
          "internalType": "contract ISuperToken",
          "name": "_superToken",
          "type": "address"
        },
        {
          "internalType": "address",
          "name": "_agreementClass",
          "type": "address"
        },
        {
          "internalType": "bytes32",
          "name": "",
          "type": "bytes32"
        },
        {
          "internalType": "bytes",
          "name": "agreementData",
          "type": "bytes"
        },
        {
          "internalType": "bytes",
          "name": "",
          "type": "bytes"
        },
        {
          "internalType": "bytes",
          "name": "_ctx",
          "type": "bytes"
        }
      ],
      "name": "afterAgreementUpdated",
      "outputs": [
        {
          "internalType": "bytes",
          "name": "newCtx",
          "type": "bytes"
        }
      ],
      "stateMutability": "nonpayable",
      "type": "function"
    },
    {
      "inputs": [
        {
          "internalType": "address",
          "name": "to",
          "type": "address"
        },
        {
          "internalType": "uint256",
          "name": "tokenId",
          "type": "uint256"
        }
      ],
      "name": "approve",
      "outputs": [],
      "stateMutability": "nonpayable",
      "type": "function"
    },
    {
      "inputs": [
        {
          "internalType": "address",
          "name": "owner",
          "type": "address"
        }
      ],
      "name": "balanceOf",
      "outputs": [
        {
          "internalType": "uint256",
          "name": "",
          "type": "uint256"
        }
      ],
      "stateMutability": "view",
      "type": "function"
    },
    {
      "inputs": [],
      "name": "baseURI",
      "outputs": [
        {
          "internalType": "string",
          "name": "",
          "type": "string"
        }
      ],
      "stateMutability": "view",
      "type": "function"
    },
    {
      "inputs": [
        {
          "internalType": "contract ISuperToken",
          "name": "",
          "type": "address"
        },
        {
          "internalType": "address",
          "name": "",
          "type": "address"
        },
        {
          "internalType": "bytes32",
          "name": "",
          "type": "bytes32"
        },
        {
          "internalType": "bytes",
          "name": "",
          "type": "bytes"
        },
        {
          "internalType": "bytes",
          "name": "",
          "type": "bytes"
        }
      ],
      "name": "beforeAgreementCreated",
      "outputs": [
        {
          "internalType": "bytes",
          "name": "",
          "type": "bytes"
        }
      ],
      "stateMutability": "view",
      "type": "function"
    },
    {
      "inputs": [
        {
          "internalType": "contract ISuperToken",
          "name": "",
          "type": "address"
        },
        {
          "internalType": "address",
          "name": "",
          "type": "address"
        },
        {
          "internalType": "bytes32",
          "name": "",
          "type": "bytes32"
        },
        {
          "internalType": "bytes",
          "name": "",
          "type": "bytes"
        },
        {
          "internalType": "bytes",
          "name": "",
          "type": "bytes"
        }
      ],
      "name": "beforeAgreementTerminated",
      "outputs": [
        {
          "internalType": "bytes",
          "name": "",
          "type": "bytes"
        }
      ],
      "stateMutability": "view",
      "type": "function"
    },
    {
      "inputs": [
        {
          "internalType": "contract ISuperToken",
          "name": "",
          "type": "address"
        },
        {
          "internalType": "address",
          "name": "",
          "type": "address"
        },
        {
          "internalType": "bytes32",
          "name": "",
          "type": "bytes32"
        },
        {
          "internalType": "bytes",
          "name": "",
          "type": "bytes"
        },
        {
          "internalType": "bytes",
          "name": "",
          "type": "bytes"
        }
      ],
      "name": "beforeAgreementUpdated",
      "outputs": [
        {
          "internalType": "bytes",
          "name": "",
          "type": "bytes"
        }
      ],
      "stateMutability": "view",
      "type": "function"
    },
    {
      "inputs": [],
      "name": "currentReceiver",
      "outputs": [
        {
          "internalType": "uint256",
          "name": "startTime",
          "type": "uint256"
        },
        {
          "internalType": "address",
          "name": "receiver",
          "type": "address"
        },
        {
          "internalType": "int96",
          "name": "flowRate",
          "type": "int96"
        }
      ],
      "stateMutability": "view",
      "type": "function"
    },
    {
      "inputs": [
        {
          "internalType": "uint256",
          "name": "tokenId",
          "type": "uint256"
        }
      ],
      "name": "getApproved",
      "outputs": [
        {
          "internalType": "address",
          "name": "",
          "type": "address"
        }
      ],
      "stateMutability": "view",
      "type": "function"
    },
    {
      "inputs": [
        {
          "internalType": "address",
          "name": "owner",
          "type": "address"
        },
        {
          "internalType": "address",
          "name": "operator",
          "type": "address"
        }
      ],
      "name": "isApprovedForAll",
      "outputs": [
        {
          "internalType": "bool",
          "name": "",
          "type": "bool"
        }
      ],
      "stateMutability": "view",
      "type": "function"
    },
    {
      "inputs": [],
      "name": "name",
      "outputs": [
        {
          "internalType": "string",
          "name": "",
          "type": "string"
        }
      ],
      "stateMutability": "view",
      "type": "function"
    },
    {
      "inputs": [
        {
          "internalType": "uint256",
          "name": "tokenId",
          "type": "uint256"
        }
      ],
      "name": "ownerOf",
      "outputs": [
        {
          "internalType": "address",
          "name": "",
          "type": "address"
        }
      ],
      "stateMutability": "view",
      "type": "function"
    },
    {
      "inputs": [
        {
          "internalType": "address",
          "name": "from",
          "type": "address"
        },
        {
          "internalType": "address",
          "name": "to",
          "type": "address"
        },
        {
          "internalType": "uint256",
          "name": "tokenId",
          "type": "uint256"
        }
      ],
      "name": "safeTransferFrom",
      "outputs": [],
      "stateMutability": "nonpayable",
      "type": "function"
    },
    {
      "inputs": [
        {
          "internalType": "address",
          "name": "from",
          "type": "address"
        },
        {
          "internalType": "address",
          "name": "to",
          "type": "address"
        },
        {
          "internalType": "uint256",
          "name": "tokenId",
          "type": "uint256"
        },
        {
          "internalType": "bytes",
          "name": "_data",
          "type": "bytes"
        }
      ],
      "name": "safeTransferFrom",
      "outputs": [],
      "stateMutability": "nonpayable",
      "type": "function"
    },
    {
      "inputs": [
        {
          "internalType": "address",
          "name": "operator",
          "type": "address"
        },
        {
          "internalType": "bool",
          "name": "approved",
          "type": "bool"
        }
      ],
      "name": "setApprovalForAll",
      "outputs": [],
      "stateMutability": "nonpayable",
      "type": "function"
    },
    {
      "inputs": [
        {
          "internalType": "bytes4",
          "name": "interfaceId",
          "type": "bytes4"
        }
      ],
      "name": "supportsInterface",
      "outputs": [
        {
          "internalType": "bool",
          "name": "",
          "type": "bool"
        }
      ],
      "stateMutability": "view",
      "type": "function"
    },
    {
      "inputs": [],
      "name": "symbol",
      "outputs": [
        {
          "internalType": "string",
          "name": "",
          "type": "string"
        }
      ],
      "stateMutability": "view",
      "type": "function"
    },
    {
      "inputs": [
        {
          "internalType": "uint256",
          "name": "index",
          "type": "uint256"
        }
      ],
      "name": "tokenByIndex",
      "outputs": [
        {
          "internalType": "uint256",
          "name": "",
          "type": "uint256"
        }
      ],
      "stateMutability": "view",
      "type": "function"
    },
    {
      "inputs": [
        {
          "internalType": "address",
          "name": "owner",
          "type": "address"
        },
        {
          "internalType": "uint256",
          "name": "index",
          "type": "uint256"
        }
      ],
      "name": "tokenOfOwnerByIndex",
      "outputs": [
        {
          "internalType": "uint256",
          "name": "",
          "type": "uint256"
        }
      ],
      "stateMutability": "view",
      "type": "function"
    },
    {
      "inputs": [
        {
          "internalType": "uint256",
          "name": "tokenId",
          "type": "uint256"
        }
      ],
      "name": "tokenURI",
      "outputs": [
        {
          "internalType": "string",
          "name": "",
          "type": "string"
        }
      ],
      "stateMutability": "view",
      "type": "function"
    },
    {
      "inputs": [],
      "name": "totalSupply",
      "outputs": [
        {
          "internalType": "uint256",
          "name": "",
          "type": "uint256"
        }
      ],
      "stateMutability": "view",
      "type": "function"
    },
    {
      "inputs": [
        {
          "internalType": "address",
          "name": "from",
          "type": "address"
        },
        {
          "internalType": "address",
          "name": "to",
          "type": "address"
        },
        {
          "internalType": "uint256",
          "name": "tokenId",
          "type": "uint256"
        }
      ],
      "name": "transferFrom",
      "outputs": [],
      "stateMutability": "nonpayable",
      "type": "function"
    }
  ],
  "bytecode": "0x60806040523480156200001157600080fd5b506040516200470938038062004709833981810160405260c08110156200003757600080fd5b8151602083018051604051929492938301929190846401000000008211156200005f57600080fd5b9083019060208201858111156200007557600080fd5b82516401000000008111828201881017156200009057600080fd5b82525081516020918201929091019080838360005b83811015620000bf578181015183820152602001620000a5565b50505050905090810190601f168015620000ed5780820380516001836020036101000a031916815260200191505b50604052602001805160405193929190846401000000008211156200011157600080fd5b9083019060208201858111156200012757600080fd5b82516401000000008111828201881017156200014257600080fd5b82525081516020918201929091019080838360005b838110156200017157818101518382015260200162000157565b50505050905090810190601f1680156200019f5780820380516001836020036101000a031916815260200191505b506040908152602082015190820151606090920151909350909150828282888888620001d26301ffc9a760e01b6200053a565b8151620001e7906006906020850190620010b9565b508051620001fd906007906020840190620010b9565b50620002106380ac58cd60e01b6200053a565b62000222635b5e139f60e01b6200053a565b6200023463780e9d6360e01b6200053a565b50506001600160a01b03841662000292576040805162461bcd60e51b815260206004820152601460248201527f686f7374206973207a65726f2061646472657373000000000000000000000000604482015290519081900360640190fd5b6001600160a01b038316620002ee576040805162461bcd60e51b815260206004820152601360248201527f636661206973207a65726f206164647265737300000000000000000000000000604482015290519081900360640190fd5b6001600160a01b0382166200034a576040805162461bcd60e51b815260206004820152601d60248201527f6163636570746564546f6b656e206973207a65726f2061646472657373000000604482015290519081900360640190fd5b6001600160a01b038116620003a6576040805162461bcd60e51b815260206004820152601860248201527f7265636569766572206973207a65726f20616464726573730000000000000000604482015290519081900360640190fd5b836001600160a01b0316633ca3ad4e826040518263ffffffff1660e01b815260040180826001600160a01b0316815260200191505060206040518083038186803b158015620003f457600080fd5b505afa15801562000409573d6000803e3d6000fd5b505050506040513d60208110156200042057600080fd5b5051156200046a576040805162461bcd60e51b81526020600482015260126024820152710726563656976657220697320616e206170760741b604482015290519081900360640190fd5b600a80546001600160a01b03199081166001600160a01b038781169190911792839055600b80548316878316179055600c80548316868316179055600d805490921684821617909155604080516315a722b960e31b815264150000000160048201819052915191939092169163ad3915c891602480830192600092919082900301818387803b158015620004fd57600080fd5b505af115801562000512573d6000803e3d6000fd5b5050505050505050506200052e866001620005bf60201b60201c565b50505050505062001155565b6001600160e01b031980821614156200059a576040805162461bcd60e51b815260206004820152601c60248201527f4552433136353a20696e76616c696420696e7465726661636520696400000000604482015290519081900360640190fd5b6001600160e01b0319166000908152602081905260409020805460ff19166001179055565b6001600160a01b0382166200061b576040805162461bcd60e51b815260206004820181905260248201527f4552433732313a206d696e7420746f20746865207a65726f2061646472657373604482015290519081900360640190fd5b620006268162000713565b1562000679576040805162461bcd60e51b815260206004820152601c60248201527f4552433732313a20746f6b656e20616c7265616479206d696e74656400000000604482015290519081900360640190fd5b620006876000838362000736565b6001600160a01b0382166000908152600160209081526040909120620006b89183906200155d62000746821b17901c565b50620006d6818360026200075b60201b62001569179092919060201c565b5060405181906001600160a01b038416906000907fddf252ad1be2c89b69c2b068fc378daa952ba7f163c4a11628f55a4df523b3ef908290a45050565b6000620007308260026200077b60201b620015891790919060201c565b92915050565b620007418262000789565b505050565b600062000754838362000fb7565b9392505050565b60006200077384846001600160a01b03851662001006565b949350505050565b6000620007548383620010a1565b6001600160a01b038116620007e5576040805162461bcd60e51b815260206004820152601c60248201527f4e6577207265636569766572206973207a65726f206164647265737300000000604482015290519081900360640190fd5b600a5460408051631e51d6a760e11b81526001600160a01b03848116600483015291519190921691633ca3ad4e916024808301926020929190829003018186803b1580156200083357600080fd5b505afa15801562000848573d6000803e3d6000fd5b505050506040513d60208110156200085f57600080fd5b5051156200089f5760405162461bcd60e51b8152600401808060200182810382526022815260200180620046e76022913960400191505060405180910390fd5b600d546001600160a01b0382811691161415620008bc5762000fb4565b600b54600c54600d5460408051631cd43d1160e31b81526001600160a01b039384166004820152306024820152918316604483015251600093929092169163e6a1e88891606480820192608092909190829003018186803b1580156200092157600080fd5b505afa15801562000936573d6000803e3d6000fd5b505050506040513d60808110156200094d57600080fd5b506020015190506000600b82900b131562000f5b57600a54600b54600c54600d5460408051600080825260208201928390526001600160a01b0394851660448301818152306064850181905295871660848501819052608060a48601908152855160c487018190529a89169a6339255d5b9a9990991698635a5999e360e11b989497949692959294919260e486019291908190849084905b83811015620009ff578181015183820152602001620009e5565b50505050905090810190601f16801562000a2d5780820380516001836020036101000a031916815260200191505b5060408051601f198184030181529181526020820180516001600160e01b03166001600160e01b03199a8b16178152905160e08c901b90991689526001600160a01b038a1660048a01908152606060248b01908152835160648c01528351939a919950975060448101965060840194509250905080838360005b8381101562000ac157818101518382015260200162000aa7565b50505050905090810190601f16801562000aef5780820380516001836020036101000a031916815260200191505b508381038252600281526020018061060f60f31b815250602001945050505050600060405180830381600087803b15801562000b2a57600080fd5b505af115801562000b3f573d6000803e3d6000fd5b505050506040513d6000823e601f3d908101601f19168201604052602081101562000b6957600080fd5b810190808051604051939291908464010000000082111562000b8a57600080fd5b90830190602082018581111562000ba057600080fd5b825164010000000081118282018810171562000bbb57600080fd5b82525081516020918201929091019080838360005b8381101562000bea57818101518382015260200162000bd0565b50505050905090810190601f16801562000c185780820380516001836020036101000a031916815260200191505b506040818152600a54600b54600c5463e8e7e2d160e01b85526001600160a01b0390811660048601819052306024870152935192811698506339255d5b975016945063317e182f60e11b935090918891859163e8e7e2d1916044808301926020929190829003018186803b15801562000c9057600080fd5b505afa15801562000ca5573d6000803e3d6000fd5b505050506040513d602081101562000cbc57600080fd5b505160408051600080825260208201909252905060405160240180856001600160a01b03168152602001846001600160a01b0316815260200183600b0b815260200180602001828103825283818151815260200191508051906020019080838360005b8381101562000d3957818101518382015260200162000d1f565b50505050905090810190601f16801562000d675780820380516001836020036101000a031916815260200191505b5060408051601f198184030181529181526020820180516001600160e01b03166001600160e01b03199a8b16178152905160e08c901b90991689526001600160a01b038a1660048a01908152606060248b01908152835160648c01528351939a919950975060448101965060840194509250905080838360005b8381101562000dfb57818101518382015260200162000de1565b50505050905090810190601f16801562000e295780820380516001836020036101000a031916815260200191505b508381038252600281526020018061060f60f31b815250602001945050505050600060405180830381600087803b15801562000e6457600080fd5b505af115801562000e79573d6000803e3d6000fd5b505050506040513d6000823e601f3d908101601f19168201604052602081101562000ea357600080fd5b810190808051604051939291908464010000000082111562000ec457600080fd5b90830190602082018581111562000eda57600080fd5b825164010000000081118282018810171562000ef557600080fd5b82525081516020918201929091019080838360005b8381101562000f2457818101518382015260200162000f0a565b50505050905090810190601f16801562000f525780820380516001836020036101000a031916815260200191505b50604052505050505b600d80546001600160a01b0319166001600160a01b03848116919091179182905560408051929091168252517f7dfb1d59db37a3fd2e15e796c189dcab714cdbb18650d68a1de58f8fa60718c9916020908290030190a1505b50565b600062000fc58383620010a1565b62000ffd5750815460018181018455600084815260208082209093018490558454848252828601909352604090209190915562000730565b50600062000730565b6000828152600184016020526040812054806200106d57505060408051808201825283815260208082018481528654600181810189556000898152848120955160029093029095019182559151908201558654868452818801909252929091205562000754565b828560000160018303815481106200108157fe5b906000526020600020906002020160010181905550600091505062000754565b60009081526001919091016020526040902054151590565b828054600181600116156101000203166002900490600052602060002090601f016020900481019282601f10620010fc57805160ff19168380011785556200112c565b828001600101855582156200112c579182015b828111156200112c5782518255916020019190600101906200110f565b506200113a9291506200113e565b5090565b5b808211156200113a57600081556001016200113f565b61358280620011656000396000f3fe608060405234801561001057600080fd5b50600436106101585760003560e01c806353c11f99116100c357806395d89b411161007c57806395d89b41146108bd578063a22cb465146108c5578063b88d4fde146108f3578063c87b56dd146109b7578063d86ed3e514610296578063e985e9c5146109d457610158565b806353c11f99146105885780635f9e7d77146106b65780636352211e146107945780636c0360eb146107b157806370a08231146107b9578063884d1f40146107df57610158565b806323b872dd1161011557806323b872dd146103c457806328d2bf94146103fa5780632f745c591461042b57806330d9c9151461045757806342842e0e146105355780634f6ccce71461056b57610158565b806301ffc9a71461015d57806306fdde0314610198578063081812fc14610215578063095ea7b31461024e57806318160ddd1461027c578063230dbd2914610296575b600080fd5b6101846004803603602081101561017357600080fd5b50356001600160e01b031916610a02565b604080519115158252519081900360200190f35b6101a0610a25565b6040805160208082528351818301528351919283929083019185019080838360005b838110156101da5781810151838201526020016101c2565b50505050905090810190601f1680156102075780820380516001836020036101000a031916815260200191505b509250505060405180910390f35b6102326004803603602081101561022b57600080fd5b5035610abb565b604080516001600160a01b039092168252519081900360200190f35b61027a6004803603604081101561026457600080fd5b506001600160a01b038135169060200135610b1d565b005b610284610bf8565b60408051918252519081900360200190f35b6101a0600480360360c08110156102ac57600080fd5b6001600160a01b03823581169260208101359091169160408201359190810190608081016060820135600160201b8111156102e657600080fd5b8201836020820111156102f857600080fd5b803590602001918460018302840111600160201b8311171561031957600080fd5b919390929091602081019035600160201b81111561033657600080fd5b82018360208201111561034857600080fd5b803590602001918460018302840111600160201b8311171561036957600080fd5b919390929091602081019035600160201b81111561038657600080fd5b82018360208201111561039857600080fd5b803590602001918460018302840111600160201b831117156103b957600080fd5b509092509050610c09565b61027a600480360360608110156103da57600080fd5b506001600160a01b03813581169160208101359091169060400135610d0e565b610402610d65565b604080519384526001600160a01b039092166020840152600b0b82820152519081900360600190f35b6102846004803603604081101561044157600080fd5b506001600160a01b038135169060200135610e2b565b6101a0600480360360a081101561046d57600080fd5b6001600160a01b03823581169260208101359091169160408201359190810190608081016060820135600160201b8111156104a757600080fd5b8201836020820111156104b957600080fd5b803590602001918460018302840111600160201b831117156104da57600080fd5b919390929091602081019035600160201b8111156104f757600080fd5b82018360208201111561050957600080fd5b803590602001918460018302840111600160201b8311171561052a57600080fd5b509092509050610e56565b61027a6004803603606081101561054b57600080fd5b506001600160a01b03813581169160208101359091169060400135610e8f565b6102846004803603602081101561058157600080fd5b5035610eaa565b6101a0600480360360c081101561059e57600080fd5b6001600160a01b03823581169260208101359091169160408201359190810190608081016060820135600160201b8111156105d857600080fd5b8201836020820111156105ea57600080fd5b803590602001918460018302840111600160201b8311171561060b57600080fd5b919390929091602081019035600160201b81111561062857600080fd5b82018360208201111561063a57600080fd5b803590602001918460018302840111600160201b8311171561065b57600080fd5b919390929091602081019035600160201b81111561067857600080fd5b82018360208201111561068a57600080fd5b803590602001918460018302840111600160201b831117156106ab57600080fd5b509092509050610ec0565b6101a0600480360360a08110156106cc57600080fd5b6001600160a01b03823581169260208101359091169160408201359190810190608081016060820135600160201b81111561070657600080fd5b82018360208201111561071857600080fd5b803590602001918460018302840111600160201b8311171561073957600080fd5b919390929091602081019035600160201b81111561075657600080fd5b82018360208201111561076857600080fd5b803590602001918460018302840111600160201b8311171561078957600080fd5b509092509050610f85565b610232600480360360208110156107aa57600080fd5b5035610fbe565b6101a0610fe6565b610284600480360360208110156107cf57600080fd5b50356001600160a01b0316611047565b6101a0600480360360a08110156107f557600080fd5b6001600160a01b03823581169260208101359091169160408201359190810190608081016060820135600160201b81111561082f57600080fd5b82018360208201111561084157600080fd5b803590602001918460018302840111600160201b8311171561086257600080fd5b919390929091602081019035600160201b81111561087f57600080fd5b82018360208201111561089157600080fd5b803590602001918460018302840111600160201b831117156108b257600080fd5b5090925090506110af565b6101a06110e8565b61027a600480360360408110156108db57600080fd5b506001600160a01b0381351690602001351515611149565b61027a6004803603608081101561090957600080fd5b6001600160a01b03823581169260208101359091169160408201359190810190608081016060820135600160201b81111561094357600080fd5b82018360208201111561095557600080fd5b803590602001918460018302840111600160201b8311171561097657600080fd5b91908080601f01602080910402602001604051908101604052809392919081815260200183838082843760009201919091525092955061124e945050505050565b6101a0600480360360208110156109cd57600080fd5b50356112ac565b610184600480360360408110156109ea57600080fd5b506001600160a01b038135811691602001351661152f565b6001600160e01b0319811660009081526020819052604090205460ff165b919050565b60068054604080516020601f6002600019610100600188161502019095169490940493840181900481028201810190925282815260609390929091830182828015610ab15780601f10610a8657610100808354040283529160200191610ab1565b820191906000526020600020905b815481529060010190602001808311610a9457829003601f168201915b5050505050905090565b6000610ac682611595565b610b015760405162461bcd60e51b815260040180806020018281038252602c815260200180613419602c913960400191505060405180910390fd5b506000908152600460205260409020546001600160a01b031690565b6000610b2882610fbe565b9050806001600160a01b0316836001600160a01b03161415610b7b5760405162461bcd60e51b815260040180806020018281038252602181526020018061349d6021913960400191505060405180910390fd5b806001600160a01b0316610b8d6115a2565b6001600160a01b03161480610bae5750610bae81610ba96115a2565b61152f565b610be95760405162461bcd60e51b815260040180806020018281038252603881526020018061334a6038913960400191505060405180910390fd5b610bf383836115a6565b505050565b6000610c046002611614565b905090565b60608989610c168261161f565b610c67576040805162461bcd60e51b815260206004820152601f60248201527f5265646972656374416c6c3a206e6f7420616363657074656420746f6b656e00604482015290519081900360640190fd5b610c7081611633565b610cab5760405162461bcd60e51b81526004018080602001828103825260218152602001806132526021913960400191505060405180910390fd5b600a546001600160a01b03163314610cf45760405162461bcd60e51b81526004018080602001828103825260228152602001806132d86022913960400191505060405180910390fd5b610cfe85856116c2565b9c9b505050505050505050505050565b610d1f610d196115a2565b82612065565b610d5a5760405162461bcd60e51b81526004018080602001828103825260318152602001806134ed6031913960400191505060405180910390fd5b610bf3838383612109565b600d54600090819081906001600160a01b031615610e2657600b54600c54600d5460408051631cd43d1160e31b81526001600160a01b039384166004820152306024820152918316604483015251919092169163e6a1e888916064808301926080929190829003018186803b158015610ddd57600080fd5b505afa158015610df1573d6000803e3d6000fd5b505050506040513d6080811015610e0757600080fd5b508051602090910151600d549194506001600160a01b03909116925090505b909192565b6001600160a01b0382166000908152600160205260408120610e4d9083612255565b90505b92915050565b606060405162461bcd60e51b815260040180806020018281038252602f81526020018061351e602f913960400191505060405180910390fd5b610bf38383836040518060200160405280600081525061124e565b600080610eb8600284612261565b509392505050565b600a546060906001600160a01b03163314610f0c5760405162461bcd60e51b81526004018080602001828103825260228152602001806132d86022913960400191505060405180910390fd5b610f158a61161f565b1580610f275750610f2589611633565b155b15610f6b5782828080601f016020809104026020016040519081016040528093929190818152602001838380828437600092019190915250929350610f7892505050565b610f7583836116c2565b90505b9998505050505050505050565b606060405162461bcd60e51b81526004018080602001828103825260338152602001806132a56033913960400191505060405180910390fd5b6000610e50826040518060600160405280602981526020016133ac602991396002919061227d565b60098054604080516020601f6002600019610100600188161502019095169490940493840181900481028201810190925282815260609390929091830182828015610ab15780601f10610a8657610100808354040283529160200191610ab1565b60006001600160a01b03821661108e5760405162461bcd60e51b815260040180806020018281038252602a815260200180613382602a913960400191505060405180910390fd5b6001600160a01b0382166000908152600160205260409020610e5090611614565b606060405162461bcd60e51b815260040180806020018281038252602f8152602001806134be602f913960400191505060405180910390fd5b60078054604080516020601f6002600019610100600188161502019095169490940493840181900481028201810190925282815260609390929091830182828015610ab15780601f10610a8657610100808354040283529160200191610ab1565b6111516115a2565b6001600160a01b0316826001600160a01b031614156111b7576040805162461bcd60e51b815260206004820152601960248201527f4552433732313a20617070726f766520746f2063616c6c657200000000000000604482015290519081900360640190fd5b80600560006111c46115a2565b6001600160a01b03908116825260208083019390935260409182016000908120918716808252919093529120805460ff1916921515929092179091556112086115a2565b6001600160a01b03167f17307eab39ab6107e8899845ad3d59bd9653f200f220920489ca2b5937696c318360405180821515815260200191505060405180910390a35050565b61125f6112596115a2565b83612065565b61129a5760405162461bcd60e51b81526004018080602001828103825260318152602001806134ed6031913960400191505060405180910390fd5b6112a68484848461228a565b50505050565b60606112b782611595565b6112f25760405162461bcd60e51b815260040180806020018281038252602f81526020018061346e602f913960400191505060405180910390fd5b60008281526008602090815260409182902080548351601f60026000196101006001861615020190931692909204918201849004840281018401909452808452606093928301828280156113875780601f1061135c57610100808354040283529160200191611387565b820191906000526020600020905b81548152906001019060200180831161136a57829003601f168201915b505050505090506060611398610fe6565b90508051600014156113ac57509050610a20565b81511561146d5780826040516020018083805190602001908083835b602083106113e75780518252601f1990920191602091820191016113c8565b51815160209384036101000a600019018019909216911617905285519190930192850191508083835b6020831061142f5780518252601f199092019160209182019101611410565b6001836020036101000a0380198251168184511680821785525050505050509050019250505060405160208183030381529060405292505050610a20565b80611477856122dc565b6040516020018083805190602001908083835b602083106114a95780518252601f19909201916020918201910161148a565b51815160209384036101000a600019018019909216911617905285519190930192850191508083835b602083106114f15780518252601f1990920191602091820191016114d2565b6001836020036101000a0380198251168184511680821785525050505050509050019250505060405160208183030381529060405292505050919050565b6001600160a01b03918216600090815260056020908152604080832093909416825291909152205460ff1690565b6000610e4d83836123b7565b600061157f84846001600160a01b038516612401565b90505b9392505050565b6000610e4d8383612498565b6000610e50600283611589565b3390565b600081815260046020526040902080546001600160a01b0319166001600160a01b03841690811790915581906115db82610fbe565b6001600160a01b03167f8c5be1e5ebec7d5bd14f71427d1e84f3dd0314c0f7b2291e5b200ac8c7c3b92560405160405180910390a45050565b6000610e50826124b0565b600c546001600160a01b0390811691161490565b60007fa9214cc96615e0085d3bb077758db69497dc2dce3b2b1e97bc93c3d18d83efd3826001600160a01b0316637730599e6040518163ffffffff1660e01b815260040160206040518083038186803b15801561168f57600080fd5b505afa1580156116a3573d6000803e3d6000fd5b505050506040513d60208110156116b957600080fd5b50511492915050565b606082828080601f0160208091040260200160405190810160405280939291908181526020018383808284376000920182905250600b54600c546040805163e8e7e2d160e01b81526001600160a01b039283166004820152306024820152905197985092969116945063e8e7e2d1935060448083019350602092829003018186803b15801561175057600080fd5b505afa158015611764573d6000803e3d6000fd5b505050506040513d602081101561177a57600080fd5b5051600b54600c54600d5460408051631cd43d1160e31b81526001600160a01b039384166004820152306024820152918316604483015251939450600093919092169163e6a1e888916064808301926080929190829003018186803b1580156117e257600080fd5b505afa1580156117f6573d6000803e3d6000fd5b505050506040513d608081101561180c57600080fd5b50602001519050818101600b81900b611bf157600a54600b54600c54600d5460408051600080825260208201928390526001600160a01b0394851660448301818152306064850181905295871660848501819052608060a48601908152855160c487018190529a89169a634329d2939a9990991698635a5999e360e11b989497949692959294919260e486019291908190849084905b838110156118ba5781810151838201526020016118a2565b50505050905090810190601f1680156118e75780820380516001836020036101000a031916815260200191505b5095505050505050604051602081830303815290604052906001600160e01b0319166020820180516001600160e01b038381831617835250505050876040518463ffffffff1660e01b815260040180846001600160a01b03168152602001806020018060200180602001848103845286818151815260200191508051906020019080838360005b8381101561198657818101518382015260200161196e565b50505050905090810190601f1680156119b35780820380516001836020036101000a031916815260200191505b508481038352600281526020018061060f60f31b815250602001848103825285818151815260200191508051906020019080838360005b83811015611a025781810151838201526020016119ea565b50505050905090810190601f168015611a2f5780820380516001836020036101000a031916815260200191505b509650505050505050600060405180830381600087803b158015611a5257600080fd5b505af1158015611a66573d6000803e3d6000fd5b505050506040513d6000823e601f3d908101601f191682016040908152811015611a8f57600080fd5b8101908080516040519392919084600160201b821115611aae57600080fd5b908301906020820185811115611ac357600080fd5b8251600160201b811182820188101715611adc57600080fd5b82525081516020918201929091019080838360005b83811015611b09578181015183820152602001611af1565b50505050905090810190601f168015611b365780820380516001836020036101000a031916815260200191505b5060405260200180516040519392919084600160201b821115611b5857600080fd5b908301906020820185811115611b6d57600080fd5b8251600160201b811182820188101715611b8657600080fd5b82525081516020918201929091019080838360005b83811015611bb3578181015183820152602001611b9b565b50505050905090810190601f168015611be05780820380516001836020036101000a031916815260200191505b50604052505050508094505061205c565b600b82900b15611c9157600a54600b8054600c54600d5460408051600080825260208201928390526001600160a01b039485166044830181815294861660648401819052978a900b6084840152608060a48401908152835160c4850181905299871699634329d2939997909816976328104d3160e11b97929692958c959460e48601929081908490849083156118ba5781810151838201526020016118a2565b600a54600b8054600c54600d5460408051600080825260208201928390526001600160a01b039485166044830181815294861660648401819052978a900b6084840152608060a48401908152835160c4850181905299871699634329d29399979098169763317e182f60e11b97929692958c959460e4860192908190849084905b83811015611d2a578181015183820152602001611d12565b50505050905090810190601f168015611d575780820380516001836020036101000a031916815260200191505b5095505050505050604051602081830303815290604052906001600160e01b0319166020820180516001600160e01b038381831617835250505050876040518463ffffffff1660e01b815260040180846001600160a01b03168152602001806020018060200180602001848103845286818151815260200191508051906020019080838360005b83811015611df6578181015183820152602001611dde565b50505050905090810190601f168015611e235780820380516001836020036101000a031916815260200191505b508481038352600281526020018061060f60f31b815250602001848103825285818151815260200191508051906020019080838360005b83811015611e72578181015183820152602001611e5a565b50505050905090810190601f168015611e9f5780820380516001836020036101000a031916815260200191505b509650505050505050600060405180830381600087803b158015611ec257600080fd5b505af1158015611ed6573d6000803e3d6000fd5b505050506040513d6000823e601f3d908101601f191682016040908152811015611eff57600080fd5b8101908080516040519392919084600160201b821115611f1e57600080fd5b908301906020820185811115611f3357600080fd5b8251600160201b811182820188101715611f4c57600080fd5b82525081516020918201929091019080838360005b83811015611f79578181015183820152602001611f61565b50505050905090810190601f168015611fa65780820380516001836020036101000a031916815260200191505b5060405260200180516040519392919084600160201b821115611fc857600080fd5b908301906020820185811115611fdd57600080fd5b8251600160201b811182820188101715611ff657600080fd5b82525081516020918201929091019080838360005b8381101561202357818101518382015260200161200b565b50505050905090810190601f1680156120505780820380516001836020036101000a031916815260200191505b50604052509296505050505b50505092915050565b600061207082611595565b6120ab5760405162461bcd60e51b815260040180806020018281038252602c81526020018061331e602c913960400191505060405180910390fd5b60006120b683610fbe565b9050806001600160a01b0316846001600160a01b031614806120f15750836001600160a01b03166120e684610abb565b6001600160a01b0316145b806121015750612101818561152f565b949350505050565b826001600160a01b031661211c82610fbe565b6001600160a01b0316146121615760405162461bcd60e51b81526004018080602001828103825260298152602001806134456029913960400191505060405180910390fd5b6001600160a01b0382166121a65760405162461bcd60e51b81526004018080602001828103825260248152602001806132fa6024913960400191505060405180910390fd5b6121b18383836124b4565b6121bc6000826115a6565b6001600160a01b03831660009081526001602052604090206121de90826124bd565b506001600160a01b0382166000908152600160205260409020612201908261155d565b5061220e60028284611569565b5080826001600160a01b0316846001600160a01b03167fddf252ad1be2c89b69c2b068fc378daa952ba7f163c4a11628f55a4df523b3ef60405160405180910390a4505050565b6000610e4d83836124c9565b6000808080612270868661252d565b9097909650945050505050565b600061157f8484846125a8565b612295848484612109565b6122a184848484612672565b6112a65760405162461bcd60e51b81526004018080602001828103825260328152602001806132736032913960400191505060405180910390fd5b60608161230157506040805180820190915260018152600360fc1b6020820152610a20565b8160005b811561231957600101600a82049150612305565b60608167ffffffffffffffff8111801561233257600080fd5b506040519080825280601f01601f19166020018201604052801561235d576020820181803683370190505b50859350905060001982015b83156123ae57600a840660300160f81b8282806001900393508151811061238c57fe5b60200101906001600160f81b031916908160001a905350600a84049350612369565b50949350505050565b60006123c38383612498565b6123f957508154600181810184556000848152602080822090930184905584548482528286019093526040902091909155610e50565b506000610e50565b600082815260018401602052604081205480612466575050604080518082018252838152602080820184815286546001818101895560008981528481209551600290930290950191825591519082015586548684528188019092529290912055611582565b8285600001600183038154811061247957fe5b9060005260206000209060020201600101819055506000915050611582565b60009081526001919091016020526040902054151590565b5490565b610bf3826127da565b6000610e4d8383612fd7565b8154600090821061250b5760405162461bcd60e51b81526004018080602001828103825260228152602001806132306022913960400191505060405180910390fd5b82600001828154811061251a57fe5b9060005260206000200154905092915050565b8154600090819083106125715760405162461bcd60e51b81526004018080602001828103825260228152602001806133f76022913960400191505060405180910390fd5b600084600001848154811061258257fe5b906000526020600020906002020190508060000154816001015492509250509250929050565b600082815260018401602052604081205482816126435760405162461bcd60e51b81526004018080602001828103825283818151815260200191508051906020019080838360005b838110156126085781810151838201526020016125f0565b50505050905090810190601f1680156126355780820380516001836020036101000a031916815260200191505b509250505060405180910390fd5b5084600001600182038154811061265657fe5b9060005260206000209060020201600101549150509392505050565b6000612686846001600160a01b031661309d565b61269257506001612101565b60606127a0630a85bd0160e11b6126a76115a2565b88878760405160240180856001600160a01b03168152602001846001600160a01b0316815260200183815260200180602001828103825283818151815260200191508051906020019080838360005b8381101561270e5781810151838201526020016126f6565b50505050905090810190601f16801561273b5780820380516001836020036101000a031916815260200191505b5095505050505050604051602081830303815290604052906001600160e01b0319166020820180516001600160e01b038381831617835250505050604051806060016040528060328152602001613273603291396001600160a01b03881691906130a3565b905060008180602001905160208110156127b957600080fd5b50516001600160e01b031916630a85bd0160e11b1492505050949350505050565b6001600160a01b038116612835576040805162461bcd60e51b815260206004820152601c60248201527f4e6577207265636569766572206973207a65726f206164647265737300000000604482015290519081900360640190fd5b600a5460408051631e51d6a760e11b81526001600160a01b03848116600483015291519190921691633ca3ad4e916024808301926020929190829003018186803b15801561288257600080fd5b505afa158015612896573d6000803e3d6000fd5b505050506040513d60208110156128ac57600080fd5b5051156128ea5760405162461bcd60e51b81526004018080602001828103825260228152602001806133d56022913960400191505060405180910390fd5b600d546001600160a01b038281169116141561290557612fd4565b600b54600c54600d5460408051631cd43d1160e31b81526001600160a01b039384166004820152306024820152918316604483015251600093929092169163e6a1e88891606480820192608092909190829003018186803b15801561296957600080fd5b505afa15801561297d573d6000803e3d6000fd5b505050506040513d608081101561299357600080fd5b506020015190506000600b82900b1315612f7b57600a54600b54600c54600d5460408051600080825260208201928390526001600160a01b0394851660448301818152306064850181905295871660848501819052608060a48601908152855160c487018190529a89169a6339255d5b9a9990991698635a5999e360e11b989497949692959294919260e486019291908190849084905b83811015612a42578181015183820152602001612a2a565b50505050905090810190601f168015612a6f5780820380516001836020036101000a031916815260200191505b5060408051601f198184030181529181526020820180516001600160e01b03166001600160e01b03199a8b16178152905160e08c901b90991689526001600160a01b038a1660048a01908152606060248b01908152835160648c01528351939a919950975060448101965060840194509250905080838360005b83811015612b01578181015183820152602001612ae9565b50505050905090810190601f168015612b2e5780820380516001836020036101000a031916815260200191505b508381038252600281526020018061060f60f31b815250602001945050505050600060405180830381600087803b158015612b6857600080fd5b505af1158015612b7c573d6000803e3d6000fd5b505050506040513d6000823e601f3d908101601f191682016040526020811015612ba557600080fd5b8101908080516040519392919084600160201b821115612bc457600080fd5b908301906020820185811115612bd957600080fd5b8251600160201b811182820188101715612bf257600080fd5b82525081516020918201929091019080838360005b83811015612c1f578181015183820152602001612c07565b50505050905090810190601f168015612c4c5780820380516001836020036101000a031916815260200191505b506040818152600a54600b54600c5463e8e7e2d160e01b85526001600160a01b0390811660048601819052306024870152935192811698506339255d5b975016945063317e182f60e11b935090918891859163e8e7e2d1916044808301926020929190829003018186803b158015612cc357600080fd5b505afa158015612cd7573d6000803e3d6000fd5b505050506040513d6020811015612ced57600080fd5b505160408051600080825260208201909252905060405160240180856001600160a01b03168152602001846001600160a01b0316815260200183600b0b815260200180602001828103825283818151815260200191508051906020019080838360005b83811015612d68578181015183820152602001612d50565b50505050905090810190601f168015612d955780820380516001836020036101000a031916815260200191505b5060408051601f198184030181529181526020820180516001600160e01b03166001600160e01b03199a8b16178152905160e08c901b90991689526001600160a01b038a1660048a01908152606060248b01908152835160648c01528351939a919950975060448101965060840194509250905080838360005b83811015612e27578181015183820152602001612e0f565b50505050905090810190601f168015612e545780820380516001836020036101000a031916815260200191505b508381038252600281526020018061060f60f31b815250602001945050505050600060405180830381600087803b158015612e8e57600080fd5b505af1158015612ea2573d6000803e3d6000fd5b505050506040513d6000823e601f3d908101601f191682016040526020811015612ecb57600080fd5b8101908080516040519392919084600160201b821115612eea57600080fd5b908301906020820185811115612eff57600080fd5b8251600160201b811182820188101715612f1857600080fd5b82525081516020918201929091019080838360005b83811015612f45578181015183820152602001612f2d565b50505050905090810190601f168015612f725780820380516001836020036101000a031916815260200191505b50604052505050505b600d80546001600160a01b0319166001600160a01b03848116919091179182905560408051929091168252517f7dfb1d59db37a3fd2e15e796c189dcab714cdbb18650d68a1de58f8fa60718c9916020908290030190a1505b50565b60008181526001830160205260408120548015613093578354600019808301919081019060009087908390811061300a57fe5b906000526020600020015490508087600001848154811061302757fe5b60009182526020808320909101929092558281526001898101909252604090209084019055865487908061305757fe5b60019003818190600052602060002001600090559055866001016000878152602001908152602001600020600090556001945050505050610e50565b6000915050610e50565b3b151590565b606061157f8484600085856130b78561309d565b613108576040805162461bcd60e51b815260206004820152601d60248201527f416464726573733a2063616c6c20746f206e6f6e2d636f6e7472616374000000604482015290519081900360640190fd5b60006060866001600160a01b031685876040518082805190602001908083835b602083106131475780518252601f199092019160209182019101613128565b6001836020036101000a03801982511681845116808217855250505050505090500191505060006040518083038185875af1925050503d80600081146131a9576040519150601f19603f3d011682016040523d82523d6000602084013e6131ae565b606091505b50915091506131be8282866131c9565b979650505050505050565b606083156131d8575081611582565b8251156131e85782518084602001fd5b60405162461bcd60e51b81526020600482018181528451602484015284518593919283926044019190850190808383600083156126085781810151838201526020016125f056fe456e756d657261626c655365743a20696e646578206f7574206f6620626f756e64735265646972656374416c6c3a206f6e6c7920434641763120737570706f727465644552433732313a207472616e7366657220746f206e6f6e20455243373231526563656976657220696d706c656d656e746572556e737570706f727465642063616c6c6261636b202d20204265666f72652041677265656d656e74205465726d696e617465645265646972656374416c6c3a20737570706f7274206f6e6c79206f6e6520686f73744552433732313a207472616e7366657220746f20746865207a65726f20616464726573734552433732313a206f70657261746f7220717565727920666f72206e6f6e6578697374656e7420746f6b656e4552433732313a20617070726f76652063616c6c6572206973206e6f74206f776e6572206e6f7220617070726f76656420666f7220616c6c4552433732313a2062616c616e636520717565727920666f7220746865207a65726f20616464726573734552433732313a206f776e657220717565727920666f72206e6f6e6578697374656e7420746f6b656e4e65772072656365697665722063616e206e6f742062652061207375706572417070456e756d657261626c654d61703a20696e646578206f7574206f6620626f756e64734552433732313a20617070726f76656420717565727920666f72206e6f6e6578697374656e7420746f6b656e4552433732313a207472616e73666572206f6620746f6b656e2074686174206973206e6f74206f776e4552433732314d657461646174613a2055524920717565727920666f72206e6f6e6578697374656e7420746f6b656e4552433732313a20617070726f76616c20746f2063757272656e74206f776e6572556e737570706f727465642063616c6c6261636b202d204265666f72652041677265656d656e7420757064617465644552433732313a207472616e736665722063616c6c6572206973206e6f74206f776e6572206e6f7220617070726f766564556e737570706f727465642063616c6c6261636b202d204265666f72652041677265656d656e742043726561746564a26469706673582212207c97b2ae0a30ccbba84d2ebeb65bd366697e0174c1cb42aea68a8fedc5450bda64736f6c634300070100334e65772072656365697665722063616e206e6f742062652061207375706572417070",
  "linkReferences": {},
  "deployedLinkReferences": {}
}