{
  "_format": "hh-sol-artifact-1",
  "contractName": "Web3FluidNFT",
  "sourceName": "contracts/FluidNFT.sol",
  "abi": [
    {
      "inputs": [
        {
          "internalType": "address",
          "name": "owner",
          "type": "address"
        },
        {
          "internalType": "string",
          "name": "_name",
          "type": "string"
        },
        {
          "internalType": "string",
          "name": "_symbol",
          "type": "string"
        },
        {
          "internalType": "contract ISuperfluid",
          "name": "host",
          "type": "address"
        },
        {
          "internalType": "contract IConstantFlowAgreementV1",
          "name": "cfa",
          "type": "address"
        },
        {
          "internalType": "contract ISuperToken",
          "name": "acceptedToken",
          "type": "address"
        },
        {
          "internalType": "address",
          "name": "receiver",
          "type": "address"
        }
      ],
      "stateMutability": "nonpayable",
      "type": "constructor"
    },
    {
      "anonymous": false,
      "inputs": [
        {
          "indexed": true,
          "internalType": "address",
          "name": "owner",
          "type": "address"
        },
        {
          "indexed": true,
          "internalType": "address",
          "name": "approved",
          "type": "address"
        },
        {
          "indexed": true,
          "internalType": "uint256",
          "name": "tokenId",
          "type": "uint256"
        }
      ],
      "name": "Approval",
      "type": "event"
    },
    {
      "anonymous": false,
      "inputs": [
        {
          "indexed": true,
          "internalType": "address",
          "name": "owner",
          "type": "address"
        },
        {
          "indexed": true,
          "internalType": "address",
          "name": "operator",
          "type": "address"
        },
        {
          "indexed": false,
          "internalType": "bool",
          "name": "approved",
          "type": "bool"
        }
      ],
      "name": "ApprovalForAll",
      "type": "event"
    },
    {
      "anonymous": false,
      "inputs": [
        {
          "indexed": false,
          "internalType": "address",
          "name": "receiver",
          "type": "address"
        }
      ],
      "name": "ReceiverChanged",
      "type": "event"
    },
    {
      "anonymous": false,
      "inputs": [
        {
          "indexed": true,
          "internalType": "address",
          "name": "from",
          "type": "address"
        },
        {
          "indexed": true,
          "internalType": "address",
          "name": "to",
          "type": "address"
        },
        {
          "indexed": true,
          "internalType": "uint256",
          "name": "tokenId",
          "type": "uint256"
        }
      ],
      "name": "Transfer",
      "type": "event"
    },
    {
      "inputs": [
        {
          "internalType": "contract ISuperToken",
          "name": "_superToken",
          "type": "address"
        },
        {
          "internalType": "address",
          "name": "_agreementClass",
          "type": "address"
        },
        {
          "internalType": "bytes32",
          "name": "",
          "type": "bytes32"
        },
        {
          "internalType": "bytes",
          "name": "",
          "type": "bytes"
        },
        {
          "internalType": "bytes",
          "name": "",
          "type": "bytes"
        },
        {
          "internalType": "bytes",
          "name": "_ctx",
          "type": "bytes"
        }
      ],
      "name": "afterAgreementCreated",
      "outputs": [
        {
          "internalType": "bytes",
          "name": "newCtx",
          "type": "bytes"
        }
      ],
      "stateMutability": "nonpayable",
      "type": "function"
    },
    {
      "inputs": [
        {
          "internalType": "contract ISuperToken",
          "name": "_superToken",
          "type": "address"
        },
        {
          "internalType": "address",
          "name": "_agreementClass",
          "type": "address"
        },
        {
          "internalType": "bytes32",
          "name": "",
          "type": "bytes32"
        },
        {
          "internalType": "bytes",
          "name": "",
          "type": "bytes"
        },
        {
          "internalType": "bytes",
          "name": "",
          "type": "bytes"
        },
        {
          "internalType": "bytes",
          "name": "_ctx",
          "type": "bytes"
        }
      ],
      "name": "afterAgreementTerminated",
      "outputs": [
        {
          "internalType": "bytes",
          "name": "newCtx",
          "type": "bytes"
        }
      ],
      "stateMutability": "nonpayable",
      "type": "function"
    },
    {
      "inputs": [
        {
          "internalType": "contract ISuperToken",
          "name": "_superToken",
          "type": "address"
        },
        {
          "internalType": "address",
          "name": "_agreementClass",
          "type": "address"
        },
        {
          "internalType": "bytes32",
          "name": "",
          "type": "bytes32"
        },
        {
          "internalType": "bytes",
          "name": "agreementData",
          "type": "bytes"
        },
        {
          "internalType": "bytes",
          "name": "",
          "type": "bytes"
        },
        {
          "internalType": "bytes",
          "name": "_ctx",
          "type": "bytes"
        }
      ],
      "name": "afterAgreementUpdated",
      "outputs": [
        {
          "internalType": "bytes",
          "name": "newCtx",
          "type": "bytes"
        }
      ],
      "stateMutability": "nonpayable",
      "type": "function"
    },
    {
      "inputs": [
        {
          "internalType": "address",
          "name": "to",
          "type": "address"
        },
        {
          "internalType": "uint256",
          "name": "tokenId",
          "type": "uint256"
        }
      ],
      "name": "approve",
      "outputs": [],
      "stateMutability": "nonpayable",
      "type": "function"
    },
    {
      "inputs": [
        {
          "internalType": "address",
          "name": "owner",
          "type": "address"
        }
      ],
      "name": "balanceOf",
      "outputs": [
        {
          "internalType": "uint256",
          "name": "",
          "type": "uint256"
        }
      ],
      "stateMutability": "view",
      "type": "function"
    },
    {
      "inputs": [],
      "name": "baseExtension",
      "outputs": [
        {
          "internalType": "string",
          "name": "",
          "type": "string"
        }
      ],
      "stateMutability": "view",
      "type": "function"
    },
    {
      "inputs": [],
      "name": "baseURI",
      "outputs": [
        {
          "internalType": "string",
          "name": "",
          "type": "string"
        }
      ],
      "stateMutability": "view",
      "type": "function"
    },
    {
      "inputs": [
        {
          "internalType": "contract ISuperToken",
          "name": "",
          "type": "address"
        },
        {
          "internalType": "address",
          "name": "",
          "type": "address"
        },
        {
          "internalType": "bytes32",
          "name": "",
          "type": "bytes32"
        },
        {
          "internalType": "bytes",
          "name": "",
          "type": "bytes"
        },
        {
          "internalType": "bytes",
          "name": "",
          "type": "bytes"
        }
      ],
      "name": "beforeAgreementCreated",
      "outputs": [
        {
          "internalType": "bytes",
          "name": "",
          "type": "bytes"
        }
      ],
      "stateMutability": "view",
      "type": "function"
    },
    {
      "inputs": [
        {
          "internalType": "contract ISuperToken",
          "name": "",
          "type": "address"
        },
        {
          "internalType": "address",
          "name": "",
          "type": "address"
        },
        {
          "internalType": "bytes32",
          "name": "",
          "type": "bytes32"
        },
        {
          "internalType": "bytes",
          "name": "",
          "type": "bytes"
        },
        {
          "internalType": "bytes",
          "name": "",
          "type": "bytes"
        }
      ],
      "name": "beforeAgreementTerminated",
      "outputs": [
        {
          "internalType": "bytes",
          "name": "",
          "type": "bytes"
        }
      ],
      "stateMutability": "view",
      "type": "function"
    },
    {
      "inputs": [
        {
          "internalType": "contract ISuperToken",
          "name": "",
          "type": "address"
        },
        {
          "internalType": "address",
          "name": "",
          "type": "address"
        },
        {
          "internalType": "bytes32",
          "name": "",
          "type": "bytes32"
        },
        {
          "internalType": "bytes",
          "name": "",
          "type": "bytes"
        },
        {
          "internalType": "bytes",
          "name": "",
          "type": "bytes"
        }
      ],
      "name": "beforeAgreementUpdated",
      "outputs": [
        {
          "internalType": "bytes",
          "name": "",
          "type": "bytes"
        }
      ],
      "stateMutability": "view",
      "type": "function"
    },
    {
      "inputs": [
        {
          "internalType": "string",
          "name": "_tokenURI",
          "type": "string"
        }
      ],
      "name": "changeURI",
      "outputs": [],
      "stateMutability": "nonpayable",
      "type": "function"
    },
    {
      "inputs": [],
      "name": "currentReceiver",
      "outputs": [
        {
          "internalType": "uint256",
          "name": "startTime",
          "type": "uint256"
        },
        {
          "internalType": "address",
          "name": "receiver",
          "type": "address"
        },
        {
          "internalType": "int96",
          "name": "flowRate",
          "type": "int96"
        }
      ],
      "stateMutability": "view",
      "type": "function"
    },
    {
      "inputs": [
        {
          "internalType": "uint256",
          "name": "_tokenId",
          "type": "uint256"
        }
      ],
      "name": "destroyNFT",
      "outputs": [],
      "stateMutability": "nonpayable",
      "type": "function"
    },
    {
      "inputs": [
        {
          "internalType": "uint256",
          "name": "tokenId",
          "type": "uint256"
        }
      ],
      "name": "getApproved",
      "outputs": [
        {
          "internalType": "address",
          "name": "",
          "type": "address"
        }
      ],
      "stateMutability": "view",
      "type": "function"
    },
    {
      "inputs": [
        {
          "internalType": "address",
          "name": "owner",
          "type": "address"
        },
        {
          "internalType": "address",
          "name": "operator",
          "type": "address"
        }
      ],
      "name": "isApprovedForAll",
      "outputs": [
        {
          "internalType": "bool",
          "name": "",
          "type": "bool"
        }
      ],
      "stateMutability": "view",
      "type": "function"
    },
    {
      "inputs": [],
      "name": "name",
      "outputs": [
        {
          "internalType": "string",
          "name": "",
          "type": "string"
        }
      ],
      "stateMutability": "view",
      "type": "function"
    },
    {
      "inputs": [
        {
          "internalType": "uint256",
          "name": "tokenId",
          "type": "uint256"
        }
      ],
      "name": "ownerOf",
      "outputs": [
        {
          "internalType": "address",
          "name": "",
          "type": "address"
        }
      ],
      "stateMutability": "view",
      "type": "function"
    },
    {
      "inputs": [
        {
          "internalType": "address",
          "name": "from",
          "type": "address"
        },
        {
          "internalType": "address",
          "name": "to",
          "type": "address"
        },
        {
          "internalType": "uint256",
          "name": "tokenId",
          "type": "uint256"
        }
      ],
      "name": "safeTransferFrom",
      "outputs": [],
      "stateMutability": "nonpayable",
      "type": "function"
    },
    {
      "inputs": [
        {
          "internalType": "address",
          "name": "from",
          "type": "address"
        },
        {
          "internalType": "address",
          "name": "to",
          "type": "address"
        },
        {
          "internalType": "uint256",
          "name": "tokenId",
          "type": "uint256"
        },
        {
          "internalType": "bytes",
          "name": "_data",
          "type": "bytes"
        }
      ],
      "name": "safeTransferFrom",
      "outputs": [],
      "stateMutability": "nonpayable",
      "type": "function"
    },
    {
      "inputs": [
        {
          "internalType": "address",
          "name": "operator",
          "type": "address"
        },
        {
          "internalType": "bool",
          "name": "approved",
          "type": "bool"
        }
      ],
      "name": "setApprovalForAll",
      "outputs": [],
      "stateMutability": "nonpayable",
      "type": "function"
    },
    {
      "inputs": [
        {
          "internalType": "bytes4",
          "name": "interfaceId",
          "type": "bytes4"
        }
      ],
      "name": "supportsInterface",
      "outputs": [
        {
          "internalType": "bool",
          "name": "",
          "type": "bool"
        }
      ],
      "stateMutability": "view",
      "type": "function"
    },
    {
      "inputs": [],
      "name": "symbol",
      "outputs": [
        {
          "internalType": "string",
          "name": "",
          "type": "string"
        }
      ],
      "stateMutability": "view",
      "type": "function"
    },
    {
      "inputs": [
        {
          "internalType": "uint256",
          "name": "index",
          "type": "uint256"
        }
      ],
      "name": "tokenByIndex",
      "outputs": [
        {
          "internalType": "uint256",
          "name": "",
          "type": "uint256"
        }
      ],
      "stateMutability": "view",
      "type": "function"
    },
    {
      "inputs": [
        {
          "internalType": "address",
          "name": "owner",
          "type": "address"
        },
        {
          "internalType": "uint256",
          "name": "index",
          "type": "uint256"
        }
      ],
      "name": "tokenOfOwnerByIndex",
      "outputs": [
        {
          "internalType": "uint256",
          "name": "",
          "type": "uint256"
        }
      ],
      "stateMutability": "view",
      "type": "function"
    },
    {
      "inputs": [
        {
          "internalType": "uint256",
          "name": "tokenId",
          "type": "uint256"
        }
      ],
      "name": "tokenURI",
      "outputs": [
        {
          "internalType": "string",
          "name": "",
          "type": "string"
        }
      ],
      "stateMutability": "view",
      "type": "function"
    },
    {
      "inputs": [],
      "name": "totalSupply",
      "outputs": [
        {
          "internalType": "uint256",
          "name": "",
          "type": "uint256"
        }
      ],
      "stateMutability": "view",
      "type": "function"
    },
    {
      "inputs": [
        {
          "internalType": "address",
          "name": "from",
          "type": "address"
        },
        {
          "internalType": "address",
          "name": "to",
          "type": "address"
        },
        {
          "internalType": "uint256",
          "name": "tokenId",
          "type": "uint256"
        }
      ],
      "name": "transferFrom",
      "outputs": [],
      "stateMutability": "nonpayable",
      "type": "function"
    }
  ],
  "bytecode": "0x60c06040526005608081905264173539b7b760d91b60a09081526200002891600e919062000933565b503480156200003657600080fd5b5060405162003e2b38038062003e2b833981016040819052620000599162000a63565b85856200006d6301ffc9a760e01b62000205565b81516200008290600690602085019062000933565b5080516200009890600790602084019062000933565b50620000ab6380ac58cd60e01b62000205565b620000bd635b5e139f60e01b62000205565b620000cf63780e9d6360e01b62000205565b50506001600160a01b038416620000e257fe5b6001600160a01b038316620000f357fe5b6001600160a01b0382166200010457fe5b6001600160a01b0381166200011557fe5b600a80546001600160a01b03199081166001600160a01b038781169190911792839055600b80548316878316179055600c80548316868316179055600d8054909216848216179091556040516315a722b960e31b8152641500000001929091169063ad3915c8906200018c90849060040162000e48565b600060405180830381600087803b158015620001a757600080fd5b505af1158015620001bc573d6000803e3d6000fd5b50505050620001d38860016200026060201b60201c565b620001f76040518060600160405280603c815260200162003def603c91396200034e565b505050505050505062000e9a565b6001600160e01b031980821614156200023b5760405162461bcd60e51b8152600401620002329062000d2c565b60405180910390fd5b6001600160e01b0319166000908152602081905260409020805460ff19166001179055565b6001600160a01b038216620002895760405162461bcd60e51b8152600401620002329062000e13565b620002948162000367565b15620002b45760405162461bcd60e51b8152600401620002329062000d63565b620002c2600083836200038a565b6001600160a01b0382166000908152600160209081526040909120620002f391839062000cfa6200039a821b17901c565b506200031181836002620003af60201b62000d06179092919060201c565b5060405181906001600160a01b038416906000907fddf252ad1be2c89b69c2b068fc378daa952ba7f163c4a11628f55a4df523b3ef908290a45050565b80516200036390600990602084019062000933565b5050565b600062000384826002620003cf60201b62000d241790919060201c565b92915050565b6200039582620003dd565b505050565b6000620003a8838362000831565b9392505050565b6000620003c784846001600160a01b03851662000880565b949350505050565b6000620003a883836200091b565b6001600160a01b038116620004065760405162461bcd60e51b8152600401620002329062000d9a565b600a54604051631e51d6a760e11b81526001600160a01b0390911690633ca3ad4e906200043890849060040162000c1a565b60206040518083038186803b1580156200045157600080fd5b505afa15801562000466573d6000803e3d6000fd5b505050506040513d601f19601f820116820180604052508101906200048c919062000b37565b15620004ac5760405162461bcd60e51b8152600401620002329062000dd1565b600d546001600160a01b0382811691161415620004c9576200082e565b600b54600c54600d54604051631cd43d1160e31b81526000936001600160a01b039081169363e6a1e888936200050b9391831692309291169060040162000c91565b60806040518083038186803b1580156200052457600080fd5b505afa15801562000539573d6000803e3d6000fd5b505050506040513d601f19601f820116820180604052508101906200055f919062000bad565b5050915050600081600b0b1315620007d157600a54600b54600c54600d546040805160008152602081019091526001600160a01b03948516946339255d5b94811693635a5999e360e11b93620005c2939183169230929116906044810162000cb4565b60408051601f198184030181529181526020820180516001600160e01b03166001600160e01b03199485161790525160e085901b90921682526200060a929160040162000c2e565b600060405180830381600087803b1580156200062557600080fd5b505af11580156200063a573d6000803e3d6000fd5b505050506040513d6000823e601f3d908101601f1916820160405262000664919081019062000b59565b50600a54600b54600c5460405163e8e7e2d160e01b81526001600160a01b03938416936339255d5b9381169263317e182f60e11b929116908790849063e8e7e2d190620006b8908590309060040162000c77565b60206040518083038186803b158015620006d157600080fd5b505afa158015620006e6573d6000803e3d6000fd5b505050506040513d601f19601f820116820180604052508101906200070c919062000b8f565b6040805160008152602081019091526200072d939291906044810162000cf4565b60408051601f198184030181529181526020820180516001600160e01b03166001600160e01b03199485161790525160e085901b909216825262000775929160040162000c2e565b600060405180830381600087803b1580156200079057600080fd5b505af1158015620007a5573d6000803e3d6000fd5b505050506040513d6000823e601f3d908101601f19168201604052620007cf919081019062000b59565b505b600d80546001600160a01b0319166001600160a01b0384811691909117918290556040517f7dfb1d59db37a3fd2e15e796c189dcab714cdbb18650d68a1de58f8fa60718c9926200082492169062000c1a565b60405180910390a1505b50565b60006200083f83836200091b565b620008775750815460018181018455600084815260208082209093018490558454848252828601909352604090209190915562000384565b50600062000384565b600082815260018401602052604081205480620008e7575050604080518082018252838152602080820184815286546001818101895560008981528481209551600290930290950191825591519082015586548684528188019092529290912055620003a8565b82856000016001830381548110620008fb57fe5b9060005260206000209060020201600101819055506000915050620003a8565b60009081526001919091016020526040902054151590565b828054600181600116156101000203166002900490600052602060002090601f016020900481019282601f106200097657805160ff1916838001178555620009a6565b82800160010185558215620009a6579182015b82811115620009a657825182559160200191906001019062000989565b50620009b4929150620009b8565b5090565b5b80821115620009b45760008155600101620009b9565b600082601f830112620009e0578081fd5b81516001600160401b0380821115620009f7578283fd5b604051601f8301601f19168101602001828111828210171562000a18578485fd5b60405282815292508284830160200186101562000a3457600080fd5b62000a4783602083016020880162000e51565b50505092915050565b8051600b81900b81146200038457600080fd5b600080600080600080600060e0888a03121562000a7e578283fd5b875162000a8b8162000e84565b60208901519097506001600160401b038082111562000aa8578485fd5b62000ab68b838c01620009cf565b975060408a015191508082111562000acc578485fd5b5062000adb8a828b01620009cf565b955050606088015162000aee8162000e84565b608089015190945062000b018162000e84565b60a089015190935062000b148162000e84565b60c089015190925062000b278162000e84565b8091505092959891949750929550565b60006020828403121562000b49578081fd5b81518015158114620003a8578182fd5b60006020828403121562000b6b578081fd5b81516001600160401b0381111562000b81578182fd5b620003c784828501620009cf565b60006020828403121562000ba1578081fd5b620003a8838362000a50565b6000806000806080858703121562000bc3578384fd5b8451935062000bd6866020870162000a50565b6040860151606090960151949790965092505050565b6000815180845262000c0681602086016020860162000e51565b601f01601f19169290920160200192915050565b6001600160a01b0391909116815260200190565b6001600160a01b038316815260606020820181905260009062000c549083018462000bec565b8281036040938401526002815261060f60f31b6020820152919091019392505050565b6001600160a01b0392831681529116602082015260400190565b6001600160a01b0393841681529183166020830152909116604082015260600190565b6001600160a01b03858116825284811660208301528316604082015260806060820181905260009062000cea9083018462000bec565b9695505050505050565b6001600160a01b03858116825284166020820152600b83900b604082015260806060820181905260009062000cea9083018462000bec565b6020808252601c908201527f4552433136353a20696e76616c696420696e7465726661636520696400000000604082015260600190565b6020808252601c908201527f4552433732313a20746f6b656e20616c7265616479206d696e74656400000000604082015260600190565b6020808252601c908201527f4e6577207265636569766572206973207a65726f206164647265737300000000604082015260600190565b60208082526022908201527f4e65772072656365697665722063616e206e6f74206265206120737570657241604082015261070760f41b606082015260800190565b6020808252818101527f4552433732313a206d696e7420746f20746865207a65726f2061646472657373604082015260600190565b90815260200190565b60005b8381101562000e6e57818101518382015260200162000e54565b8381111562000e7e576000848401525b50505050565b6001600160a01b03811681146200082e57600080fd5b612f458062000eaa6000396000f3fe608060405234801561001057600080fd5b50600436106101a95760003560e01c80635f9e7d77116100f9578063b88d4fde11610097578063c87b56dd11610071578063c87b56dd1461036f578063d86ed3e514610382578063e5e01c1114610395578063e985e9c5146103a8576101a9565b8063b88d4fde14610341578063c40412b514610354578063c668286214610367576101a9565b806370a08231116100d357806370a0823114610300578063884d1f401461031357806395d89b4114610326578063a22cb4651461032e576101a9565b80635f9e7d77146102d25780636352211e146102e55780636c0360eb146102f8576101a9565b806323b872dd1161016657806330d9c9151161014057806330d9c9151461028657806342842e0e146102995780634f6ccce7146102ac57806353c11f99146102bf576101a9565b806323b872dd1461024957806328d2bf941461025c5780632f745c5914610273576101a9565b806301ffc9a7146101ae57806306fdde03146101d7578063081812fc146101ec578063095ea7b31461020c57806318160ddd14610221578063230dbd2914610236575b600080fd5b6101c16101bc36600461220b565b6103bb565b6040516101ce919061258a565b60405180910390f35b6101df6103da565b6040516101ce9190612595565b6101ff6101fa366004612488565b610470565b6040516101ce9190612539565b61021f61021a3660046121ac565b6104bc565b005b610229610554565b6040516101ce9190612d61565b6101df610244366004612373565b610565565b61021f6102573660046120d5565b6105f7565b61026461062f565b6040516101ce93929190612d6a565b6102296102813660046121ac565b6106f2565b6101df6102943660046122d7565b61071d565b61021f6102a73660046120d5565b610737565b6102296102ba366004612488565b610752565b6101df6102cd366004612373565b610768565b6101df6102e03660046122d7565b61082f565b6101ff6102f3366004612488565b610849565b6101df610871565b61022961030e366004612081565b6108d2565b6101df6103213660046122d7565b61091b565b6101df610935565b61021f61033c36600461217f565b610996565b61021f61034f366004612115565b610a64565b61021f610362366004612488565b610aa3565b6101df610ae9565b6101df61037d366004612488565b610b77565b6101df610390366004612373565b610bf0565b61021f6103a3366004612455565b610c89565b6101c16103b636600461209d565b610ccc565b6001600160e01b03191660009081526020819052604090205460ff1690565b60068054604080516020601f60026000196101006001881615020190951694909404938401819004810282018101909252828152606093909290918301828280156104665780601f1061043b57610100808354040283529160200191610466565b820191906000526020600020905b81548152906001019060200180831161044957829003601f168201915b5050505050905090565b600061047b82610d30565b6104a05760405162461bcd60e51b815260040161049790612ae6565b60405180910390fd5b506000908152600460205260409020546001600160a01b031690565b60006104c782610849565b9050806001600160a01b0316836001600160a01b031614156104fb5760405162461bcd60e51b815260040161049790612bfa565b806001600160a01b031661050d610d3d565b6001600160a01b031614806105295750610529816103b6610d3d565b6105455760405162461bcd60e51b8152600401610497906129bb565b61054f8383610d41565b505050565b60006105606002610daf565b905090565b6060898961057282610dba565b61058e5760405162461bcd60e51b8152600401610497906127ab565b61059781610dce565b6105b35760405162461bcd60e51b815260040161049790612718565b600a546001600160a01b031633146105dd5760405162461bcd60e51b815260040161049790612835565b6105e78585610e69565b9c9b505050505050505050505050565b610608610602610d3d565b82611217565b6106245760405162461bcd60e51b815260040161049790612c8a565b61054f838383611294565b600d54600090819081906001600160a01b0316156106ed57600b54600c54600d54604051631cd43d1160e31b81526001600160a01b039384169363e6a1e888936106859390821692309290911690600401612649565b60806040518083038186803b15801561069d57600080fd5b505afa1580156106b1573d6000803e3d6000fd5b505050506040513d601f19601f820116820180604052508101906106d591906124a0565b5050600d549194506001600160a01b03909116925090505b909192565b6001600160a01b038216600090815260016020526040812061071490836113a2565b90505b92915050565b606060405162461bcd60e51b815260040161049790612d12565b61054f83838360405180602001604052806000815250610a64565b6000806107606002846113ae565b509392505050565b600a546060906001600160a01b031633146107955760405162461bcd60e51b815260040161049790612835565b61079e8a610dba565b15806107b057506107ae89610dce565b155b156107f45782828080601f01602080910402602001604051908101604052809392919081815260200183838082843760009201919091525092935061082292505050565b6108156040518060600160405280603c8152602001612e6f603c91396113cc565b61081f8383610e69565b90505b9998505050505050505050565b606060405162461bcd60e51b8152600401610497906127e2565b600061071782604051806060016040528060298152602001612eab60299139600291906113e3565b60098054604080516020601f60026000196101006001881615020190951694909404938401819004810282018101909252828152606093909290918301828280156104665780601f1061043b57610100808354040283529160200191610466565b60006001600160a01b0382166108fa5760405162461bcd60e51b815260040161049790612a18565b6001600160a01b038216600090815260016020526040902061071790610daf565b606060405162461bcd60e51b815260040161049790612c3b565b60078054604080516020601f60026000196101006001881615020190951694909404938401819004810282018101909252828152606093909290918301828280156104665780601f1061043b57610100808354040283529160200191610466565b61099e610d3d565b6001600160a01b0316826001600160a01b031614156109cf5760405162461bcd60e51b8152600401610497906128bb565b80600560006109dc610d3d565b6001600160a01b03908116825260208083019390935260409182016000908120918716808252919093529120805460ff191692151592909217909155610a20610d3d565b6001600160a01b03167f17307eab39ab6107e8899845ad3d59bd9653f200f220920489ca2b5937696c3183604051610a58919061258a565b60405180910390a35050565b610a75610a6f610d3d565b83611217565b610a915760405162461bcd60e51b815260040161049790612c8a565b610a9d848484846113f0565b50505050565b610aad6001610849565b6001600160a01b0316336001600160a01b031614610add5760405162461bcd60e51b815260040161049790612b32565b610ae681611423565b50565b600e805460408051602060026001851615610100026000190190941693909304601f81018490048402820184019092528181529291830182828015610b6f5780601f10610b4457610100808354040283529160200191610b6f565b820191906000526020600020905b815481529060010190602001808311610b5257829003601f168201915b505050505081565b6060610b8282610d30565b610b9e5760405162461bcd60e51b815260040161049790612bab565b6060610ba8610871565b90506000815111610bc85760405180602001604052806000815250610be9565b80604051602001610bd9919061251d565b6040516020818303038152906040525b9392505050565b60608989610bfd82610dba565b610c195760405162461bcd60e51b8152600401610497906127ab565b610c2281610dce565b610c3e5760405162461bcd60e51b815260040161049790612718565b600a546001600160a01b03163314610c685760405162461bcd60e51b815260040161049790612835565b6105dd6040518060600160405280603c8152602001612ed4603c91396113cc565b610c936001610849565b6001600160a01b0316336001600160a01b031614610cc35760405162461bcd60e51b815260040161049790612b32565b610ae6816113cc565b6001600160a01b03918216600090815260056020908152604080832093909416825291909152205460ff1690565b600061071483836114f0565b6000610d1c84846001600160a01b03851661153a565b949350505050565b600061071483836115d1565b6000610717600283610d24565b3390565b600081815260046020526040902080546001600160a01b0319166001600160a01b0384169081179091558190610d7682610849565b6001600160a01b03167f8c5be1e5ebec7d5bd14f71427d1e84f3dd0314c0f7b2291e5b200ac8c7c3b92560405160405180910390a45050565b6000610717826115e9565b600c546001600160a01b0390811691161490565b60007fa9214cc96615e0085d3bb077758db69497dc2dce3b2b1e97bc93c3d18d83efd3826001600160a01b0316637730599e6040518163ffffffff1660e01b815260040160206040518083038186803b158015610e2a57600080fd5b505afa158015610e3e573d6000803e3d6000fd5b505050506040513d601f19601f82011682018060405250810190610e6291906121f3565b1492915050565b606082828080601f0160208091040260200160405190810160405280939291908181526020018383808284376000920182905250600b54600c5460405163e8e7e2d160e01b815296975091956001600160a01b03918216955063e8e7e2d19450610edb9350911690309060040161262f565b60206040518083038186803b158015610ef357600080fd5b505afa158015610f07573d6000803e3d6000fd5b505050506040513d601f19601f82011682018060405250810190610f2b919061243a565b600b54600c54600d54604051631cd43d1160e31b81529394506000936001600160a01b039384169363e6a1e88893610f6f9390821692309290911690600401612649565b60806040518083038186803b158015610f8757600080fd5b505afa158015610f9b573d6000803e3d6000fd5b505050506040513d601f19601f82011682018060405250810190610fbf91906124a0565b509092505050818101600b81900b6110c657600a54600b54600c54600d546040805160008152602081019091526001600160a01b0394851694634329d29394811693635a5999e360e11b93611020939183169230929116906044810161266c565b60408051601f198184030181529181526020820180516001600160e01b03166001600160e01b03199485161790525160e085901b9092168252611068929189906004016125e6565b600060405180830381600087803b15801561108257600080fd5b505af1158015611096573d6000803e3d6000fd5b505050506040513d6000823e601f3d908101601f191682016040526110be9190810190612276565b50935061120e565b600b82900b1561111e57600a54600b54600c54600d546040805160008152602081019091526001600160a01b0394851694634329d293948116936328104d3160e11b93611020939183169216908890604481016126a0565b600a54600b54600c54600d546040805160008152602081019091526001600160a01b0394851694634329d2939481169363317e182f60e11b9361116c939183169216908890604481016126a0565b60408051601f198184030181529181526020820180516001600160e01b03166001600160e01b03199485161790525160e085901b90921682526111b4929189906004016125e6565b600060405180830381600087803b1580156111ce57600080fd5b505af11580156111e2573d6000803e3d6000fd5b505050506040513d6000823e601f3d908101601f1916820160405261120a9190810190612276565b5093505b50505092915050565b600061122282610d30565b61123e5760405162461bcd60e51b81526004016104979061296f565b600061124983610849565b9050806001600160a01b0316846001600160a01b031614806112845750836001600160a01b031661127984610470565b6001600160a01b0316145b80610d1c5750610d1c8185610ccc565b826001600160a01b03166112a782610849565b6001600160a01b0316146112cd5760405162461bcd60e51b815260040161049790612b62565b6001600160a01b0382166112f35760405162461bcd60e51b815260040161049790612877565b6112fe8383836115ed565b611309600082610d41565b6001600160a01b038316600090815260016020526040902061132b90826115f6565b506001600160a01b038216600090815260016020526040902061134e9082610cfa565b5061135b60028284610d06565b5080826001600160a01b0316846001600160a01b03167fddf252ad1be2c89b69c2b068fc378daa952ba7f163c4a11628f55a4df523b3ef60405160405180910390a4505050565b60006107148383611602565b60008080806113bd8686611647565b909450925050505b9250929050565b80516113df906009906020840190611ec3565b5050565b6000610d1c8484846116a3565b6113fb848484611294565b61140784848484611702565b610a9d5760405162461bcd60e51b815260040161049790612759565b600061142e82610849565b905061143c816000846115ed565b611447600083610d41565b600082815260086020526040902054600260001961010060018416150201909116041561148557600082815260086020526040812061148591611f41565b6001600160a01b03811660009081526001602052604090206114a790836115f6565b506114b36002836117e1565b5060405182906000906001600160a01b038416907fddf252ad1be2c89b69c2b068fc378daa952ba7f163c4a11628f55a4df523b3ef908390a45050565b60006114fc83836115d1565b61153257508154600181810184556000848152602080822090930184905584548482528286019093526040902091909155610717565b506000610717565b60008281526001840160205260408120548061159f575050604080518082018252838152602080820184815286546001818101895560008981528481209551600290930290950191825591519082015586548684528188019092529290912055610be9565b828560000160018303815481106115b257fe5b9060005260206000209060020201600101819055506000915050610be9565b60009081526001919091016020526040902054151590565b5490565b61054f826117ed565b60006107148383611c13565b815460009082106116255760405162461bcd60e51b8152600401610497906126d6565b82600001828154811061163457fe5b9060005260206000200154905092915050565b81546000908190831061166c5760405162461bcd60e51b815260040161049790612aa4565b600084600001848154811061167d57fe5b906000526020600020906002020190508060000154816001015492509250509250929050565b600082815260018401602052604081205482816116d35760405162461bcd60e51b81526004016104979190612595565b508460000160018203815481106116e657fe5b9060005260206000209060020201600101549150509392505050565b6000611716846001600160a01b0316611ce0565b61172257506001610d1c565b60606117aa630a85bd0160e11b611737610d3d565b88878760405160240161174d949392919061254d565b604051602081830303815290604052906001600160e01b0319166020820180516001600160e01b038381831617835250505050604051806060016040528060328152602001612e3d603291396001600160a01b0388169190611ce6565b90506000818060200190518101906117c29190612227565b6001600160e01b031916630a85bd0160e11b1492505050949350505050565b60006107148383611cf5565b6001600160a01b0381166118135760405162461bcd60e51b8152600401610497906128f2565b600a54604051631e51d6a760e11b81526001600160a01b0390911690633ca3ad4e90611843908490600401612539565b60206040518083038186803b15801561185b57600080fd5b505afa15801561186f573d6000803e3d6000fd5b505050506040513d601f19601f8201168201806040525081019061189391906121d7565b156118b05760405162461bcd60e51b815260040161049790612a62565b600d546001600160a01b03828116911614156118cb57610ae6565b600b54600c54600d54604051631cd43d1160e31b81526000936001600160a01b039081169363e6a1e8889361190b93918316923092911690600401612649565b60806040518083038186803b15801561192357600080fd5b505afa158015611937573d6000803e3d6000fd5b505050506040513d601f19601f8201168201806040525081019061195b91906124a0565b5050915050600081600b0b1315611bb657600a54600b54600c54600d546040805160008152602081019091526001600160a01b03948516946339255d5b94811693635a5999e360e11b936119bb939183169230929116906044810161266c565b60408051601f198184030181529181526020820180516001600160e01b03166001600160e01b03199485161790525160e085901b9092168252611a0192916004016125a8565b600060405180830381600087803b158015611a1b57600080fd5b505af1158015611a2f573d6000803e3d6000fd5b505050506040513d6000823e601f3d908101601f19168201604052611a579190810190612243565b50600a54600b54600c5460405163e8e7e2d160e01b81526001600160a01b03938416936339255d5b9381169263317e182f60e11b929116908790849063e8e7e2d190611aa9908590309060040161262f565b60206040518083038186803b158015611ac157600080fd5b505afa158015611ad5573d6000803e3d6000fd5b505050506040513d601f19601f82011682018060405250810190611af9919061243a565b604080516000815260208101909152611b1893929190604481016126a0565b60408051601f198184030181529181526020820180516001600160e01b03166001600160e01b03199485161790525160e085901b9092168252611b5e92916004016125a8565b600060405180830381600087803b158015611b7857600080fd5b505af1158015611b8c573d6000803e3d6000fd5b505050506040513d6000823e601f3d908101601f19168201604052611bb49190810190612243565b505b600d80546001600160a01b0319166001600160a01b0384811691909117918290556040517f7dfb1d59db37a3fd2e15e796c189dcab714cdbb18650d68a1de58f8fa60718c992611c07921690612539565b60405180910390a15050565b60008181526001830160205260408120548015611ccf5783546000198083019190810190600090879083908110611c4657fe5b9060005260206000200154905080876000018481548110611c6357fe5b600091825260208083209091019290925582815260018981019092526040902090840190558654879080611c9357fe5b60019003818190600052602060002001600090559055866001016000878152602001908152602001600020600090556001945050505050610717565b6000915050610717565b5092915050565b3b151590565b6060610d1c8484600085611dc9565b60008181526001830160205260408120548015611ccf5783546000198083019190810190600090879083908110611d2857fe5b9060005260206000209060020201905080876000018481548110611d4857fe5b600091825260208083208454600290930201918255600193840154918401919091558354825289830190526040902090840190558654879080611d8757fe5b60008281526020808220600260001990940193840201828155600190810183905592909355888152898201909252604082209190915594506107179350505050565b606082471015611deb5760405162461bcd60e51b815260040161049790612929565b611df485611ce0565b611e105760405162461bcd60e51b815260040161049790612cdb565b60006060866001600160a01b03168587604051611e2d919061251d565b60006040518083038185875af1925050503d8060008114611e6a576040519150601f19603f3d011682016040523d82523d6000602084013e611e6f565b606091505b5091509150611e7f828286611e8a565b979650505050505050565b60608315611e99575081610be9565b825115611ea95782518084602001fd5b8160405162461bcd60e51b81526004016104979190612595565b828054600181600116156101000203166002900490600052602060002090601f016020900481019282601f10611f0457805160ff1916838001178555611f31565b82800160010185558215611f31579182015b82811115611f31578251825591602001919060010190611f16565b50611f3d929150611f81565b5090565b50805460018160011615610100020316600290046000825580601f10611f675750610ae6565b601f016020900490600052602060002090810190610ae691905b5b80821115611f3d5760008155600101611f82565b60008083601f840112611fa7578182fd5b50813567ffffffffffffffff811115611fbe578182fd5b6020830191508360208285010111156113c557600080fd5b600082601f830112611fe6578081fd5b8135611ff9611ff482612db3565b612d8c565b915080825283602082850101111561201057600080fd5b8060208401602084013760009082016020015292915050565b600082601f830112612039578081fd5b8151612047611ff482612db3565b915080825283602082850101111561205e57600080fd5b611cd9816020840160208601612dd7565b8051600b81900b811461071757600080fd5b600060208284031215612092578081fd5b8135610be981612e03565b600080604083850312156120af578081fd5b82356120ba81612e03565b915060208301356120ca81612e03565b809150509250929050565b6000806000606084860312156120e9578081fd5b83356120f481612e03565b9250602084013561210481612e03565b929592945050506040919091013590565b6000806000806080858703121561212a578081fd5b843561213581612e03565b9350602085013561214581612e03565b925060408501359150606085013567ffffffffffffffff811115612167578182fd5b61217387828801611fd6565b91505092959194509250565b60008060408385031215612191578182fd5b823561219c81612e03565b915060208301356120ca81612e18565b600080604083850312156121be578182fd5b82356121c981612e03565b946020939093013593505050565b6000602082840312156121e8578081fd5b8151610be981612e18565b600060208284031215612204578081fd5b5051919050565b60006020828403121561221c578081fd5b8135610be981612e26565b600060208284031215612238578081fd5b8151610be981612e26565b600060208284031215612254578081fd5b815167ffffffffffffffff81111561226a578182fd5b610d1c84828501612029565b60008060408385031215612288578182fd5b825167ffffffffffffffff8082111561229f578384fd5b6122ab86838701612029565b935060208501519150808211156122c0578283fd5b506122cd85828601612029565b9150509250929050565b600080600080600080600060a0888a0312156122f1578485fd5b87356122fc81612e03565b9650602088013561230c81612e03565b955060408801359450606088013567ffffffffffffffff8082111561232f578485fd5b61233b8b838c01611f96565b909650945060808a0135915080821115612353578384fd5b506123608a828b01611f96565b989b979a50959850939692959293505050565b600080600080600080600080600060c08a8c031215612390578283fd5b893561239b81612e03565b985060208a01356123ab81612e03565b975060408a0135965060608a013567ffffffffffffffff808211156123ce578485fd5b6123da8d838e01611f96565b909850965060808c01359150808211156123f2578485fd5b6123fe8d838e01611f96565b909650945060a08c0135915080821115612416578384fd5b506124238c828d01611f96565b915080935050809150509295985092959850929598565b60006020828403121561244b578081fd5b610714838361206f565b600060208284031215612466578081fd5b813567ffffffffffffffff81111561247c578182fd5b610d1c84828501611fd6565b600060208284031215612499578081fd5b5035919050565b600080600080608085870312156124b5578182fd5b845193506124c6866020870161206f565b6040860151606090960151949790965092505050565b600081518084526124f4816020860160208601612dd7565b601f01601f19169290920160200192915050565b6002815261060f60f31b602082015260400190565b6000825161252f818460208701612dd7565b9190910192915050565b6001600160a01b0391909116815260200190565b6001600160a01b0385811682528416602082015260408101839052608060608201819052600090612580908301846124dc565b9695505050505050565b901515815260200190565b60006020825261071460208301846124dc565b6001600160a01b03831681526060602082018190526000906125cc908301846124dc565b82810360408401526125dd81612508565b95945050505050565b6001600160a01b038416815260806020820181905260009061260a908301856124dc565b828103604084015261261b81612508565b9050828103606084015261258081856124dc565b6001600160a01b0392831681529116602082015260400190565b6001600160a01b0393841681529183166020830152909116604082015260600190565b6001600160a01b038581168252848116602083015283166040820152608060608201819052600090612580908301846124dc565b6001600160a01b03858116825284166020820152600b83900b6040820152608060608201819052600090612580908301846124dc565b60208082526022908201527f456e756d657261626c655365743a20696e646578206f7574206f6620626f756e604082015261647360f01b606082015260800190565b60208082526021908201527f5265646972656374416c6c3a206f6e6c7920434641763120737570706f7274656040820152601960fa1b606082015260800190565b60208082526032908201527f4552433732313a207472616e7366657220746f206e6f6e20455243373231526560408201527131b2b4bb32b91034b6b83632b6b2b73a32b960711b606082015260800190565b6020808252601f908201527f5265646972656374416c6c3a206e6f7420616363657074656420746f6b656e00604082015260600190565b60208082526033908201527f556e737570706f727465642063616c6c6261636b202d20204265666f7265204160408201527219dc99595b595b9d0815195c9b5a5b985d1959606a1b606082015260800190565b60208082526022908201527f5265646972656374416c6c3a20737570706f7274206f6e6c79206f6e6520686f6040820152611cdd60f21b606082015260800190565b60208082526024908201527f4552433732313a207472616e7366657220746f20746865207a65726f206164646040820152637265737360e01b606082015260800190565b60208082526019908201527f4552433732313a20617070726f766520746f2063616c6c657200000000000000604082015260600190565b6020808252601c908201527f4e6577207265636569766572206973207a65726f206164647265737300000000604082015260600190565b60208082526026908201527f416464726573733a20696e73756666696369656e742062616c616e636520666f6040820152651c8818d85b1b60d21b606082015260800190565b6020808252602c908201527f4552433732313a206f70657261746f7220717565727920666f72206e6f6e657860408201526b34b9ba32b73a103a37b5b2b760a11b606082015260800190565b60208082526038908201527f4552433732313a20617070726f76652063616c6c6572206973206e6f74206f7760408201527f6e6572206e6f7220617070726f76656420666f7220616c6c0000000000000000606082015260800190565b6020808252602a908201527f4552433732313a2062616c616e636520717565727920666f7220746865207a65604082015269726f206164647265737360b01b606082015260800190565b60208082526022908201527f4e65772072656365697665722063616e206e6f74206265206120737570657241604082015261070760f41b606082015260800190565b60208082526022908201527f456e756d657261626c654d61703a20696e646578206f7574206f6620626f756e604082015261647360f01b606082015260800190565b6020808252602c908201527f4552433732313a20617070726f76656420717565727920666f72206e6f6e657860408201526b34b9ba32b73a103a37b5b2b760a11b606082015260800190565b6020808252601690820152752737ba103a34329037bbb732b91037b3102a37b5b2b760511b604082015260600190565b60208082526029908201527f4552433732313a207472616e73666572206f6620746f6b656e2074686174206960408201526839903737ba1037bbb760b91b606082015260800190565b6020808252602f908201527f4552433732314d657461646174613a2055524920717565727920666f72206e6f60408201526e3732bc34b9ba32b73a103a37b5b2b760891b606082015260800190565b60208082526021908201527f4552433732313a20617070726f76616c20746f2063757272656e74206f776e656040820152603960f91b606082015260800190565b6020808252602f908201527f556e737570706f727465642063616c6c6261636b202d204265666f726520416760408201526e1c99595b595b9d081d5c19185d1959608a1b606082015260800190565b60208082526031908201527f4552433732313a207472616e736665722063616c6c6572206973206e6f74206f6040820152701ddb995c881b9bdc88185c1c1c9bdd9959607a1b606082015260800190565b6020808252601d908201527f416464726573733a2063616c6c20746f206e6f6e2d636f6e7472616374000000604082015260600190565b6020808252602f908201527f556e737570706f727465642063616c6c6261636b202d204265666f726520416760408201526e1c99595b595b9d0810dc99585d1959608a1b606082015260800190565b90815260200190565b9283526001600160a01b03919091166020830152600b0b604082015260600190565b60405181810167ffffffffffffffff81118282101715612dab57600080fd5b604052919050565b600067ffffffffffffffff821115612dc9578081fd5b50601f01601f191660200190565b60005b83811015612df2578181015183820152602001612dda565b83811115610a9d5750506000910152565b6001600160a01b0381168114610ae657600080fd5b8015158114610ae657600080fd5b6001600160e01b031981168114610ae657600080fdfe4552433732313a207472616e7366657220746f206e6f6e20455243373231526563656976657220696d706c656d656e746572697066733a2f2f516d52336e4b367375754b6d7367445a4472615946354a434a4e554e44334a4859676e594a587a47556f684c394c2f312e6a736f6e4552433732313a206f776e657220717565727920666f72206e6f6e6578697374656e7420746f6b656e697066733a2f2f516d626177676b7a576555764b76557337756163396a326e364658516e3477516567386174686145646966675a512f312e6a736f6ea2646970667358221220e63d1c533881bef6c4dda269801b972600092ab400ed5060716c7f0a085c767464736f6c63430007010033697066733a2f2f516d52336e4b367375754b6d7367445a4472615946354a434a4e554e44334a4859676e594a587a47556f684c394c2f312e6a736f6e",
  "linkReferences": {},
  "deployedLinkReferences": {}
}